{
  "contractName": "Wallet",
  "abi": [
    {
      "anonymous": false,
      "inputs": [
        {
          "indexed": true,
          "internalType": "address",
          "name": "sender",
          "type": "address"
        },
        {
          "indexed": false,
          "internalType": "uint256",
          "name": "amount",
          "type": "uint256"
        },
        {
          "indexed": false,
          "internalType": "uint256",
          "name": "balance",
          "type": "uint256"
        }
      ],
      "name": "Deposit",
      "type": "event"
    },
    {
      "anonymous": false,
      "inputs": [
        {
          "indexed": true,
          "internalType": "address",
          "name": "from",
          "type": "address"
        },
        {
          "indexed": true,
          "internalType": "address",
          "name": "to",
          "type": "address"
        },
        {
          "indexed": false,
          "internalType": "uint256",
          "name": "amount",
          "type": "uint256"
        },
        {
          "indexed": false,
          "internalType": "uint256",
          "name": "balance",
          "type": "uint256"
        }
      ],
      "name": "Transfer",
      "type": "event"
    },
    {
      "anonymous": false,
      "inputs": [
        {
          "indexed": true,
          "internalType": "address",
          "name": "to",
          "type": "address"
        },
        {
          "indexed": false,
          "internalType": "uint256",
          "name": "amount",
          "type": "uint256"
        },
        {
          "indexed": false,
          "internalType": "uint256",
          "name": "balance",
          "type": "uint256"
        }
      ],
      "name": "Withdraw",
      "type": "event"
    },
    {
      "stateMutability": "payable",
      "type": "fallback",
      "payable": true
    },
    {
      "inputs": [],
      "name": "owner",
      "outputs": [
        {
          "internalType": "address",
          "name": "",
          "type": "address"
        }
      ],
      "stateMutability": "view",
      "type": "function",
      "constant": true
    },
    {
      "stateMutability": "payable",
      "type": "receive",
      "payable": true
    },
    {
      "inputs": [],
      "name": "etherBalance",
      "outputs": [
        {
          "internalType": "uint256",
          "name": "",
          "type": "uint256"
        }
      ],
      "stateMutability": "view",
      "type": "function",
      "constant": true
    },
    {
      "inputs": [
        {
          "internalType": "address",
          "name": "user",
          "type": "address"
        }
      ],
      "name": "etherBalanceOf",
      "outputs": [
        {
          "internalType": "uint256",
          "name": "",
          "type": "uint256"
        }
      ],
      "stateMutability": "view",
      "type": "function",
      "constant": true
    },
    {
      "inputs": [],
      "name": "totalEtherBalance",
      "outputs": [
        {
          "internalType": "uint256",
          "name": "",
          "type": "uint256"
        }
      ],
      "stateMutability": "view",
      "type": "function",
      "constant": true
    },
    {
      "inputs": [
        {
          "internalType": "uint256",
          "name": "amount",
          "type": "uint256"
        }
      ],
      "name": "withraw",
      "outputs": [
        {
          "internalType": "uint256",
          "name": "",
          "type": "uint256"
        }
      ],
      "stateMutability": "nonpayable",
      "type": "function"
    },
    {
      "inputs": [
        {
          "internalType": "address",
          "name": "to",
          "type": "address"
        },
        {
          "internalType": "uint256",
          "name": "amount",
          "type": "uint256"
        }
      ],
      "name": "transfer",
      "outputs": [
        {
          "internalType": "uint256",
          "name": "",
          "type": "uint256"
        }
      ],
      "stateMutability": "nonpayable",
      "type": "function"
    },
    {
      "inputs": [
        {
          "internalType": "address",
          "name": "tokenAddress",
          "type": "address"
        }
      ],
      "name": "getTokenBalance",
      "outputs": [
        {
          "internalType": "uint256",
          "name": "",
          "type": "uint256"
        }
      ],
      "stateMutability": "view",
      "type": "function",
      "constant": true
    },
    {
      "inputs": [
        {
          "internalType": "address",
          "name": "tokenAddress",
          "type": "address"
        },
        {
          "internalType": "uint256",
          "name": "amount",
          "type": "uint256"
        }
      ],
      "name": "withdrawToken",
      "outputs": [
        {
          "internalType": "uint256",
          "name": "",
          "type": "uint256"
        }
      ],
      "stateMutability": "nonpayable",
      "type": "function"
    },
    {
      "inputs": [
        {
          "internalType": "address",
          "name": "tokenAddress",
          "type": "address"
        },
        {
          "internalType": "address",
          "name": "to",
          "type": "address"
        },
        {
          "internalType": "uint256",
          "name": "amount",
          "type": "uint256"
        }
      ],
      "name": "transferToken",
      "outputs": [
        {
          "internalType": "uint256",
          "name": "",
          "type": "uint256"
        }
      ],
      "stateMutability": "nonpayable",
      "type": "function"
    },
    {
      "inputs": [
        {
          "internalType": "address",
          "name": "tokenAddress",
          "type": "address"
        },
        {
          "internalType": "uint256",
          "name": "amount",
          "type": "uint256"
        }
      ],
      "name": "depositToken",
      "outputs": [
        {
          "internalType": "uint256",
          "name": "",
          "type": "uint256"
        }
      ],
      "stateMutability": "nonpayable",
      "type": "function"
    },
    {
      "inputs": [],
      "name": "depositToken",
      "outputs": [],
      "stateMutability": "nonpayable",
      "type": "function"
    }
  ],
  "bytecode": "0x608060405233600060016101000a81548173ffffffffffffffffffffffffffffffffffffffff021916908373ffffffffffffffffffffffffffffffffffffffff16021790555034801561005157600080fd5b506110df806100616000396000f3fe6080604052600436106100a05760003560e01c8063a9059cbb11610064578063a9059cbb14610314578063ad66e52a14610351578063c89039c51461037c578063e625d51514610393578063f03cc2b9146103be578063f5537ede146103fb5761014d565b8063179fc99f146101f5578063338b5dea146102325780633aecd0e31461026f5780638da5cb5b146102ac5780639e281a98146102d75761014d565b3661014d5734600160003373ffffffffffffffffffffffffffffffffffffffff1673ffffffffffffffffffffffffffffffffffffffff16815260200190815260200160002060008282546100f49190610b91565b925050819055503373ffffffffffffffffffffffffffffffffffffffff167f90890809c654f11d6e72a28fa60149770a0d11ec6c92319d6ceb2bb0a4ea1a153447604051610143929190610bf6565b60405180910390a2005b34600160003373ffffffffffffffffffffffffffffffffffffffff1673ffffffffffffffffffffffffffffffffffffffff168152602001908152602001600020600082825461019c9190610b91565b925050819055503373ffffffffffffffffffffffffffffffffffffffff167f90890809c654f11d6e72a28fa60149770a0d11ec6c92319d6ceb2bb0a4ea1a1534476040516101eb929190610bf6565b60405180910390a2005b34801561020157600080fd5b5061021c60048036038101906102179190610c82565b610438565b6040516102299190610caf565b60405180910390f35b34801561023e57600080fd5b5061025960048036038101906102549190610cf6565b610481565b6040516102669190610caf565b60405180910390f35b34801561027b57600080fd5b5061029660048036038101906102919190610c82565b610489565b6040516102a39190610caf565b60405180910390f35b3480156102b857600080fd5b506102c161050f565b6040516102ce9190610d45565b60405180910390f35b3480156102e357600080fd5b506102fe60048036038101906102f99190610cf6565b610535565b60405161030b9190610caf565b60405180910390f35b34801561032057600080fd5b5061033b60048036038101906103369190610cf6565b6106b7565b6040516103489190610caf565b60405180910390f35b34801561035d57600080fd5b50610366610819565b6040516103739190610caf565b60405180910390f35b34801561038857600080fd5b50610391610860565b005b34801561039f57600080fd5b506103a8610862565b6040516103b59190610caf565b60405180910390f35b3480156103ca57600080fd5b506103e560048036038101906103e09190610d60565b61086a565b6040516103f29190610caf565b60405180910390f35b34801561040757600080fd5b50610422600480360381019061041d9190610d8d565b6109d5565b60405161042f9190610caf565b60405180910390f35b6000600160008373ffffffffffffffffffffffffffffffffffffffff1673ffffffffffffffffffffffffffffffffffffffff168152602001908152602001600020549050919050565b600092915050565b6000600260003373ffffffffffffffffffffffffffffffffffffffff1673ffffffffffffffffffffffffffffffffffffffff16815260200190815260200160002060008373ffffffffffffffffffffffffffffffffffffffff1673ffffffffffffffffffffffffffffffffffffffff168152602001908152602001600020549050919050565b600060019054906101000a900473ffffffffffffffffffffffffffffffffffffffff1681565b60008061054184610489565b905080831115610586576040517f08c379a000000000000000000000000000000000000000000000000000000000815260040161057d90610e3d565b60405180910390fd5b60008490508073ffffffffffffffffffffffffffffffffffffffff1663a9059cbb33866040518363ffffffff1660e01b81526004016105c6929190610e5d565b602060405180830381600087803b1580156105e057600080fd5b505af11580156105f4573d6000803e3d6000fd5b505050506040513d601f19601f820116820180604052508101906106189190610ebe565b5083600260003373ffffffffffffffffffffffffffffffffffffffff1673ffffffffffffffffffffffffffffffffffffffff16815260200190815260200160002060008773ffffffffffffffffffffffffffffffffffffffff1673ffffffffffffffffffffffffffffffffffffffff16815260200190815260200160002060008282546106a59190610eeb565b92505081905550839250505092915050565b6000478211156106fc576040517f08c379a00000000000000000000000000000000000000000000000000000000081526004016106f390610f6b565b60405180910390fd5b60008373ffffffffffffffffffffffffffffffffffffffff168360405161072290610fbc565b60006040518083038185875af1925050503d806000811461075f576040519150601f19603f3d011682016040523d82523d6000602084013e610764565b606091505b50509050806107a8576040517f08c379a000000000000000000000000000000000000000000000000000000000815260040161079f9061101d565b60405180910390fd5b8373ffffffffffffffffffffffffffffffffffffffff163373ffffffffffffffffffffffffffffffffffffffff167f9ed053bb818ff08b8353cd46f78db1f0799f31c9e4458fdb425c10eccd2efc448547604051610807929190610bf6565b60405180910390a38291505092915050565b6000600160003373ffffffffffffffffffffffffffffffffffffffff1673ffffffffffffffffffffffffffffffffffffffff16815260200190815260200160002054905090565b565b600047905090565b6000478211156108af576040517f08c379a00000000000000000000000000000000000000000000000000000000081526004016108a690610f6b565b60405180910390fd5b60008060019054906101000a900473ffffffffffffffffffffffffffffffffffffffff1673ffffffffffffffffffffffffffffffffffffffff16836040516108f690610fbc565b60006040518083038185875af1925050503d8060008114610933576040519150601f19603f3d011682016040523d82523d6000602084013e610938565b606091505b505090508061097c576040517f08c379a000000000000000000000000000000000000000000000000000000000815260040161097390611089565b60405180910390fd5b3373ffffffffffffffffffffffffffffffffffffffff167ff279e6a1f5e320cca91135676d9cb6e44ca8a08c0b88342bcdb1144f6511b56884476040516109c4929190610bf6565b60405180910390a282915050919050565b6000806109e185610489565b905080831115610a26576040517f08c379a0000000000000000000000000000000000000000000000000000000008152600401610a1d90610e3d565b60405180910390fd5b60008590508073ffffffffffffffffffffffffffffffffffffffff1663a9059cbb86866040518363ffffffff1660e01b8152600401610a66929190610e5d565b602060405180830381600087803b158015610a8057600080fd5b505af1158015610a94573d6000803e3d6000fd5b505050506040513d601f19601f82011682018060405250810190610ab89190610ebe565b5083600260003373ffffffffffffffffffffffffffffffffffffffff1673ffffffffffffffffffffffffffffffffffffffff16815260200190815260200160002060008873ffffffffffffffffffffffffffffffffffffffff1673ffffffffffffffffffffffffffffffffffffffff1681526020019081526020016000206000828254610b459190610eeb565b9250508190555083925050509392505050565b6000819050919050565b7f4e487b7100000000000000000000000000000000000000000000000000000000600052601160045260246000fd5b6000610b9c82610b58565b9150610ba783610b58565b9250827fffffffffffffffffffffffffffffffffffffffffffffffffffffffffffffffff03821115610bdc57610bdb610b62565b5b828201905092915050565b610bf081610b58565b82525050565b6000604082019050610c0b6000830185610be7565b610c186020830184610be7565b9392505050565b600080fd5b600073ffffffffffffffffffffffffffffffffffffffff82169050919050565b6000610c4f82610c24565b9050919050565b610c5f81610c44565b8114610c6a57600080fd5b50565b600081359050610c7c81610c56565b92915050565b600060208284031215610c9857610c97610c1f565b5b6000610ca684828501610c6d565b91505092915050565b6000602082019050610cc46000830184610be7565b92915050565b610cd381610b58565b8114610cde57600080fd5b50565b600081359050610cf081610cca565b92915050565b60008060408385031215610d0d57610d0c610c1f565b5b6000610d1b85828601610c6d565b9250506020610d2c85828601610ce1565b9150509250929050565b610d3f81610c44565b82525050565b6000602082019050610d5a6000830184610d36565b92915050565b600060208284031215610d7657610d75610c1f565b5b6000610d8484828501610ce1565b91505092915050565b600080600060608486031215610da657610da5610c1f565b5b6000610db486828701610c6d565b9350506020610dc586828701610c6d565b9250506040610dd686828701610ce1565b9150509250925092565b600082825260208201905092915050565b7f4e6f7420656e6f75676820746f6b656e2062616c616e63650000000000000000600082015250565b6000610e27601883610de0565b9150610e3282610df1565b602082019050919050565b60006020820190508181036000830152610e5681610e1a565b9050919050565b6000604082019050610e726000830185610d36565b610e7f6020830184610be7565b9392505050565b60008115159050919050565b610e9b81610e86565b8114610ea657600080fd5b50565b600081519050610eb881610e92565b92915050565b600060208284031215610ed457610ed3610c1f565b5b6000610ee284828501610ea9565b91505092915050565b6000610ef682610b58565b9150610f0183610b58565b925082821015610f1457610f13610b62565b5b828203905092915050565b7f4e6f7420656e6f7567682065746865722062616c616e63650000000000000000600082015250565b6000610f55601883610de0565b9150610f6082610f1f565b602082019050919050565b60006020820190508181036000830152610f8481610f48565b9050919050565b600081905092915050565b50565b6000610fa6600083610f8b565b9150610fb182610f96565b600082019050919050565b6000610fc782610f99565b9150819050919050565b7f4661696c656420746f2073656e64204574686572000000000000000000000000600082015250565b6000611007601483610de0565b915061101282610fd1565b602082019050919050565b6000602082019050818103600083015261103681610ffa565b9050919050565b7f4661696c656420746f2077697468647261772045746865720000000000000000600082015250565b6000611073601883610de0565b915061107e8261103d565b602082019050919050565b600060208201905081810360008301526110a281611066565b905091905056fea2646970667358221220365b615defa53997e0054d37e099687d663a8543fbc3baa7090bc9de36a11f0164736f6c63430008090033",
  "immutableReferences": {},
  "source": "// SPDX-License-Identifier: GPL-3.0\n\npragma solidity 0.8.9;\n\n// import \"@openzeppelin/contracts/token/ERC20/ERC20.sol\";\nimport \"openzeppelin-solidity/contracts/token/ERC20/ERC20.sol\";\n\n/**\n * @title Storage\n * @dev Store & retrieve value in a variable\n */\ncontract Wallet {\n    event Deposit(address indexed sender, uint256 amount, uint256 balance);\n    event Withdraw(address indexed to, uint256 amount, uint256 balance);\n    event Transfer(\n        address indexed from,\n        address indexed to,\n        uint256 amount,\n        uint256 balance\n    );\n\n    bool internal locked;\n    address public owner = msg.sender;\n    // address[] tokens;\n    // mapping(address => bool) tokens;\n\n    mapping(address => uint256) userEtherBalance; // user address => ether amount\n    mapping(address => mapping(address => uint256)) userTokenBalance; // user address => token address => amount\n\n    modifier onlyOwner() {\n        require(owner == msg.sender, \"Not owner\");\n        _;\n    }\n\n    modifier noReentrant() {\n        require(!locked, \"No re-entrancy\");\n        locked = true;\n        _;\n        locked = false;\n    }\n\n    receive() external payable {\n        userEtherBalance[msg.sender] += msg.value;\n        emit Deposit(msg.sender, msg.value, address(this).balance);\n    }\n\n    fallback() external payable {\n        userEtherBalance[msg.sender] += msg.value;\n        emit Deposit(msg.sender, msg.value, address(this).balance);\n    }\n\n    function etherBalance() external view returns (uint256) {\n        return userEtherBalance[msg.sender];\n    }\n\n    function etherBalanceOf(address user) external view returns (uint256) {\n        return userEtherBalance[user];\n    }\n\n    function totalEtherBalance() external view returns (uint256) {\n        return address(this).balance;\n    }\n\n    function withraw(uint256 amount) external returns (uint256) {\n        require(amount <= address(this).balance, \"Not enough ether balance\");\n        (bool success, ) = owner.call{value: amount}(\"\");\n        require(success, \"Failed to withdraw Ether\");\n        emit Withdraw(msg.sender, amount, address(this).balance);\n        return amount;\n    }\n\n    function transfer(address to, uint256 amount) external returns (uint256) {\n        require(amount <= address(this).balance, \"Not enough ether balance\");\n        (bool success, ) = to.call{value: amount}(\"\");\n        require(success, \"Failed to send Ether\");\n        emit Transfer(msg.sender, to, amount, address(this).balance);\n        return amount;\n    }\n\n    // ERC20\n\n    function getTokenBalance(address tokenAddress)\n        public\n        view\n        returns (uint256)\n    {\n        return userTokenBalance[msg.sender][tokenAddress];\n\n        // ERC20 tokenContract = ERC20(tokenAddress);\n        // return tokenContract.balanceOf(address(this));\n\n        // (bool success, bytes memory result) = tokenAddress.delegatecall(\n        //     abi.encodeWithSignature(\"balanceOf(address)\", msg.sender)\n        // );\n    }\n\n    // WIP\n    function depositToken(address tokenAddress, uint256 amount)\n        public\n        returns (uint256)\n    {\n        // o xristis tha kanei approve kai edw tha kanoume trander kai update to userTokenBalance\n    }\n\n    function withdrawToken(address tokenAddress, uint256 amount)\n        public\n        returns (uint256)\n    {\n        uint256 tokenBalance = getTokenBalance(tokenAddress);\n        require(amount <= tokenBalance, \"Not enough token balance\");\n\n        ERC20 tokenContract = ERC20(tokenAddress);\n        tokenContract.transfer(msg.sender, amount);\n\n        userTokenBalance[msg.sender][tokenAddress] -= amount;\n\n        return amount;\n    }\n\n    function transferToken(\n        address tokenAddress,\n        address to,\n        uint256 amount\n    ) public returns (uint256) {\n        uint256 tokenBalance = getTokenBalance(tokenAddress);\n        require(amount <= tokenBalance, \"Not enough token balance\");\n\n        ERC20 tokenContract = ERC20(tokenAddress);\n        tokenContract.transfer(to, amount);\n\n        userTokenBalance[msg.sender][tokenAddress] -= amount;\n\n        return amount;\n    }\n\n    function depositToken() public {\n        // delegated transfer ????\n    }\n\n    // TESTS BELOW\n    /*\n    \n    function addToken(address newToken) public returns(address) {\n        // require(!tokens[newToken].exists, \"Token already exists.\");\n        // tokens.push(newToken);\n        // return newToken;\n    }\n    \n    function getTokenBalance(address tokenAddress) public view returns(uint) {\n        ERC20 tokenContract = ERC20(tokenAddress);\n        return tokenContract.balanceOf(msg.sender);\n    }\n    \n    function depositToken() public {\n        // delegated transfer\n    }\n    \n    function withrawToken() public {\n        \n    }\n    \n    function transferToken() public {\n        \n    }\n    */\n}\n",
  "sourcePath": "/Users/nikospetridis/projects/blockchain/blockchain-developer-bootcamp-final-project/contracts/contracts/Wallet.sol",
  "compiler": {
    "name": "solc",
    "version": "0.8.9+commit.e5eed63a.Emscripten.clang"
  },
  "schemaVersion": "3.4.3",
  "updatedAt": "2021-10-09T17:02:34.150Z",
  "networkType": "ethereum",
  "devdoc": {
    "details": "Store & retrieve value in a variable",
    "kind": "dev",
    "methods": {},
    "title": "Storage",
    "version": 1
  },
  "userdoc": {
    "kind": "user",
    "methods": {},
    "version": 1
  }
}