{
  "contractName": "EtherWallet",
  "abi": [
    {
      "anonymous": false,
      "inputs": [
        {
          "indexed": true,
          "internalType": "address",
          "name": "sender",
          "type": "address"
        },
        {
          "indexed": false,
          "internalType": "uint256",
          "name": "amount",
          "type": "uint256"
        },
        {
          "indexed": false,
          "internalType": "uint256",
          "name": "balance",
          "type": "uint256"
        }
      ],
      "name": "DepositEther",
      "type": "event"
    },
    {
      "anonymous": false,
      "inputs": [
        {
          "indexed": true,
          "internalType": "address",
          "name": "to",
          "type": "address"
        },
        {
          "indexed": false,
          "internalType": "uint256",
          "name": "amount",
          "type": "uint256"
        },
        {
          "indexed": false,
          "internalType": "uint256",
          "name": "balance",
          "type": "uint256"
        }
      ],
      "name": "WithdrawEther",
      "type": "event"
    },
    {
      "stateMutability": "payable",
      "type": "fallback"
    },
    {
      "stateMutability": "payable",
      "type": "receive"
    },
    {
      "inputs": [],
      "name": "getEtherBalance",
      "outputs": [
        {
          "internalType": "uint256",
          "name": "",
          "type": "uint256"
        }
      ],
      "stateMutability": "view",
      "type": "function"
    },
    {
      "inputs": [],
      "name": "depositEther",
      "outputs": [
        {
          "internalType": "uint256",
          "name": "",
          "type": "uint256"
        }
      ],
      "stateMutability": "payable",
      "type": "function"
    },
    {
      "inputs": [
        {
          "internalType": "uint256",
          "name": "amount",
          "type": "uint256"
        }
      ],
      "name": "withdrawEther",
      "outputs": [
        {
          "internalType": "uint256",
          "name": "",
          "type": "uint256"
        }
      ],
      "stateMutability": "nonpayable",
      "type": "function"
    }
  ],
  "bytecode": "0x608060405234801561001057600080fd5b50600160008190555061092d806100286000396000f3fe6080604052600436106100385760003560e01c80633bed33ce1461013357806398ea5fca14610170578063ea46193e1461018e5761012e565b3661012e57600034111561012c5734600160003373ffffffffffffffffffffffffffffffffffffffff1673ffffffffffffffffffffffffffffffffffffffff16815260200190815260200160002060008282546100959190610621565b925050819055503373ffffffffffffffffffffffffffffffffffffffff167f20d6bac8359f33d79581bfd2b0457cb189fda6d90fed287ddc9f2ba3eb124b6734600160003373ffffffffffffffffffffffffffffffffffffffff1673ffffffffffffffffffffffffffffffffffffffff16815260200190815260200160002054604051610123929190610686565b60405180910390a25b005b600080fd5b34801561013f57600080fd5b5061015a600480360381019061015591906106e0565b6101b9565b604051610167919061070d565b60405180910390f35b61017861046c565b604051610185919061070d565b60405180910390f35b34801561019a57600080fd5b506101a36105a1565b6040516101b0919061070d565b60405180910390f35b600060026000541415610201576040517f08c379a00000000000000000000000000000000000000000000000000000000081526004016101f890610785565b60405180910390fd5b6002600081905550600160003373ffffffffffffffffffffffffffffffffffffffff1673ffffffffffffffffffffffffffffffffffffffff1681526020019081526020016000205482111561028b576040517f08c379a0000000000000000000000000000000000000000000000000000000008152600401610282906107f1565b60405180910390fd5b81600160003373ffffffffffffffffffffffffffffffffffffffff1673ffffffffffffffffffffffffffffffffffffffff16815260200190815260200160002060008282546102da9190610811565b9250508190555060003373ffffffffffffffffffffffffffffffffffffffff168360405161030790610876565b60006040518083038185875af1925050503d8060008114610344576040519150601f19603f3d011682016040523d82523d6000602084013e610349565b606091505b505090508061038d576040517f08c379a0000000000000000000000000000000000000000000000000000000008152600401610384906108d7565b60405180910390fd5b3373ffffffffffffffffffffffffffffffffffffffff167ffd68f27313402be52d2f46b6d391b7b8657000a3062853a4be930f1281072a0184600160003373ffffffffffffffffffffffffffffffffffffffff1673ffffffffffffffffffffffffffffffffffffffff16815260200190815260200160002054604051610414929190610686565b60405180910390a2600160003373ffffffffffffffffffffffffffffffffffffffff1673ffffffffffffffffffffffffffffffffffffffff168152602001908152602001600020549150506001600081905550919050565b60008034111561055c5734600160003373ffffffffffffffffffffffffffffffffffffffff1673ffffffffffffffffffffffffffffffffffffffff16815260200190815260200160002060008282546104c59190610621565b925050819055503373ffffffffffffffffffffffffffffffffffffffff167f20d6bac8359f33d79581bfd2b0457cb189fda6d90fed287ddc9f2ba3eb124b6734600160003373ffffffffffffffffffffffffffffffffffffffff1673ffffffffffffffffffffffffffffffffffffffff16815260200190815260200160002054604051610553929190610686565b60405180910390a25b600160003373ffffffffffffffffffffffffffffffffffffffff1673ffffffffffffffffffffffffffffffffffffffff16815260200190815260200160002054905090565b6000600160003373ffffffffffffffffffffffffffffffffffffffff1673ffffffffffffffffffffffffffffffffffffffff16815260200190815260200160002054905090565b6000819050919050565b7f4e487b7100000000000000000000000000000000000000000000000000000000600052601160045260246000fd5b600061062c826105e8565b9150610637836105e8565b9250827fffffffffffffffffffffffffffffffffffffffffffffffffffffffffffffffff0382111561066c5761066b6105f2565b5b828201905092915050565b610680816105e8565b82525050565b600060408201905061069b6000830185610677565b6106a86020830184610677565b9392505050565b600080fd5b6106bd816105e8565b81146106c857600080fd5b50565b6000813590506106da816106b4565b92915050565b6000602082840312156106f6576106f56106af565b5b6000610704848285016106cb565b91505092915050565b60006020820190506107226000830184610677565b92915050565b600082825260208201905092915050565b7f5265656e7472616e637947756172643a207265656e7472616e742063616c6c00600082015250565b600061076f601f83610728565b915061077a82610739565b602082019050919050565b6000602082019050818103600083015261079e81610762565b9050919050565b7f4e6f7420656e6f7567682065746865722062616c616e63650000000000000000600082015250565b60006107db601883610728565b91506107e6826107a5565b602082019050919050565b6000602082019050818103600083015261080a816107ce565b9050919050565b600061081c826105e8565b9150610827836105e8565b92508282101561083a576108396105f2565b5b828203905092915050565b600081905092915050565b50565b6000610860600083610845565b915061086b82610850565b600082019050919050565b600061088182610853565b9150819050919050565b7f4661696c656420746f2077697468647261772045746865720000000000000000600082015250565b60006108c1601883610728565b91506108cc8261088b565b602082019050919050565b600060208201905081810360008301526108f0816108b4565b905091905056fea26469706673582212204b33491f0f29833d2f32165a76a060998a9744f4f5ade68faf0b8d1575ea698164736f6c63430008090033",
  "immutableReferences": {},
  "source": "// SPDX-License-Identifier: GPL-3.0\n\npragma solidity 0.8.9;\n\nimport '@openzeppelin/contracts/security/ReentrancyGuard.sol';\n\n/// @title Ether management Wallet contract\n/// @author Nikolaos Petridis\n/// @notice deposit and witdraw ether in a smart contract\ncontract EtherWallet is ReentrancyGuard {\n  mapping(address => uint256) private etherBalances; // user address => ether amount\n\n  event DepositEther(address indexed sender, uint256 amount, uint256 balance);\n  event WithdrawEther(address indexed to, uint256 amount, uint256 balance);\n\n  /// @notice Deposit ether to wallet\n  receive() external payable virtual {\n    if (msg.value > 0) {\n      // Q: Does this uses SafeMath by default? \n      etherBalances[msg.sender] += msg.value;\n      emit DepositEther(msg.sender, msg.value, etherBalances[msg.sender]);\n    }\n  }\n\n  /// @notice fallback always reverts because if ether is\n  /// @notice sent by accident it cannot be withdrawn\n  fallback() external payable virtual {\n    revert();\n  }\n\n  /// @notice Get the ether balance of the sender\n  /// @return The ether balance of the sender\n  function getEtherBalance() external view returns (uint256) {\n    return etherBalances[msg.sender];\n  }\n\n  /// @notice Deposit ether to wallet\n  /// @return The new ether balance of the sender\n  function depositEther() external payable returns (uint256) {\n    if (msg.value > 0) {\n      etherBalances[msg.sender] += msg.value;\n      emit DepositEther(msg.sender, msg.value, etherBalances[msg.sender]);\n    }\n    return etherBalances[msg.sender];\n  }\n\n  /// @notice Withdraw ether from wallet to sender address\n  /// @param amount ether amount you want to withdraw\n  /// @return The new ether balance of the sender\n  function withdrawEther(uint256 amount) external nonReentrant returns (uint256) {\n    require(amount <= etherBalances[msg.sender], \"Not enough ether balance\");\n    \n    etherBalances[msg.sender] -= amount;\n    (bool success, ) = msg.sender.call{value: amount}(\"\");\n    require(success, \"Failed to withdraw Ether\");\n    \n    emit WithdrawEther(msg.sender, amount, etherBalances[msg.sender]);\n    \n    return etherBalances[msg.sender];\n  }\n}\n",
  "sourcePath": "/Users/nikospetridis/projects/blockchain/blockchain-developer-bootcamp-final-project/smart-contracts/contracts/EtherWallet.sol",
  "compiler": {
    "name": "solc",
    "version": "0.8.9+commit.e5eed63a.Emscripten.clang"
  },
  "schemaVersion": "3.4.3",
  "updatedAt": "2021-11-28T13:26:09.465Z",
  "devdoc": {
    "author": "Nikolaos Petridis",
    "kind": "dev",
    "methods": {
      "depositEther()": {
        "returns": {
          "_0": "The new ether balance of the sender"
        }
      },
      "getEtherBalance()": {
        "returns": {
          "_0": "The ether balance of the sender"
        }
      },
      "withdrawEther(uint256)": {
        "params": {
          "amount": "ether amount you want to withdraw"
        },
        "returns": {
          "_0": "The new ether balance of the sender"
        }
      }
    },
    "title": "Ether management Wallet contract",
    "version": 1
  },
  "userdoc": {
    "kind": "user",
    "methods": {
      "depositEther()": {
        "notice": "Deposit ether to wallet"
      },
      "getEtherBalance()": {
        "notice": "Get the ether balance of the sender"
      },
      "withdrawEther(uint256)": {
        "notice": "Withdraw ether from wallet to sender address"
      }
    },
    "notice": "deposit and witdraw ether in a smart contract",
    "version": 1
  }
}