{
  "contractName": "DefiVault",
  "abi": [
    {
      "anonymous": false,
      "inputs": [
        {
          "indexed": true,
          "internalType": "address",
          "name": "sender",
          "type": "address"
        },
        {
          "indexed": false,
          "internalType": "uint256",
          "name": "amount",
          "type": "uint256"
        },
        {
          "indexed": false,
          "internalType": "address",
          "name": "erc20Contract",
          "type": "address"
        },
        {
          "indexed": false,
          "internalType": "uint256",
          "name": "newTotalBalance",
          "type": "uint256"
        }
      ],
      "name": "DepositERC20",
      "type": "event"
    },
    {
      "anonymous": false,
      "inputs": [
        {
          "indexed": true,
          "internalType": "address",
          "name": "sender",
          "type": "address"
        },
        {
          "indexed": false,
          "internalType": "uint256",
          "name": "amount",
          "type": "uint256"
        },
        {
          "indexed": false,
          "internalType": "uint256",
          "name": "balance",
          "type": "uint256"
        }
      ],
      "name": "DepositEther",
      "type": "event"
    },
    {
      "anonymous": false,
      "inputs": [
        {
          "indexed": true,
          "internalType": "address",
          "name": "to",
          "type": "address"
        },
        {
          "indexed": false,
          "internalType": "uint256",
          "name": "amount",
          "type": "uint256"
        },
        {
          "indexed": false,
          "internalType": "address",
          "name": "erc20Contract",
          "type": "address"
        },
        {
          "indexed": false,
          "internalType": "uint256",
          "name": "balance",
          "type": "uint256"
        }
      ],
      "name": "WithdrawERC20",
      "type": "event"
    },
    {
      "anonymous": false,
      "inputs": [
        {
          "indexed": true,
          "internalType": "address",
          "name": "to",
          "type": "address"
        },
        {
          "indexed": false,
          "internalType": "uint256",
          "name": "amount",
          "type": "uint256"
        },
        {
          "indexed": false,
          "internalType": "uint256",
          "name": "balance",
          "type": "uint256"
        }
      ],
      "name": "WithdrawEther",
      "type": "event"
    },
    {
      "stateMutability": "payable",
      "type": "fallback",
      "payable": true
    },
    {
      "inputs": [],
      "name": "depositEther",
      "outputs": [
        {
          "internalType": "uint256",
          "name": "",
          "type": "uint256"
        }
      ],
      "stateMutability": "payable",
      "type": "function",
      "payable": true
    },
    {
      "inputs": [],
      "name": "getEtherBalance",
      "outputs": [
        {
          "internalType": "uint256",
          "name": "",
          "type": "uint256"
        }
      ],
      "stateMutability": "view",
      "type": "function",
      "constant": true
    },
    {
      "inputs": [
        {
          "internalType": "uint256",
          "name": "amount",
          "type": "uint256"
        }
      ],
      "name": "withdrawEther",
      "outputs": [
        {
          "internalType": "uint256",
          "name": "",
          "type": "uint256"
        }
      ],
      "stateMutability": "nonpayable",
      "type": "function"
    },
    {
      "stateMutability": "payable",
      "type": "receive",
      "payable": true
    },
    {
      "inputs": [
        {
          "internalType": "address",
          "name": "tokenAddress",
          "type": "address"
        }
      ],
      "name": "getTokenBalance",
      "outputs": [
        {
          "internalType": "uint256",
          "name": "",
          "type": "uint256"
        }
      ],
      "stateMutability": "view",
      "type": "function",
      "constant": true
    },
    {
      "inputs": [],
      "name": "getTokens",
      "outputs": [
        {
          "internalType": "address[]",
          "name": "tokens",
          "type": "address[]"
        },
        {
          "internalType": "uint256[]",
          "name": "balances",
          "type": "uint256[]"
        }
      ],
      "stateMutability": "view",
      "type": "function",
      "constant": true
    },
    {
      "inputs": [
        {
          "internalType": "address",
          "name": "tokenAddress",
          "type": "address"
        },
        {
          "internalType": "uint256",
          "name": "amount",
          "type": "uint256"
        }
      ],
      "name": "depositToken",
      "outputs": [
        {
          "internalType": "uint256",
          "name": "",
          "type": "uint256"
        }
      ],
      "stateMutability": "nonpayable",
      "type": "function"
    },
    {
      "inputs": [
        {
          "internalType": "address",
          "name": "tokenAddress",
          "type": "address"
        },
        {
          "internalType": "uint256",
          "name": "amount",
          "type": "uint256"
        }
      ],
      "name": "withdrawToken",
      "outputs": [
        {
          "internalType": "uint256",
          "name": "",
          "type": "uint256"
        }
      ],
      "stateMutability": "nonpayable",
      "type": "function"
    }
  ],
  "bytecode": "0x608060405234801561001057600080fd5b5061202b806100206000396000f3fe6080604052600436106100745760003560e01c806398ea5fca1161004e57806398ea5fca146102245780639e281a9814610242578063aa6ca8081461027f578063ea46193e146102ab57610168565b8063338b5dea1461016d5780633aecd0e3146101aa5780633bed33ce146101e757610168565b3661016857600034111561016657346000803373ffffffffffffffffffffffffffffffffffffffff1673ffffffffffffffffffffffffffffffffffffffff16815260200190815260200160002060008282546100d09190611565565b925050819055503373ffffffffffffffffffffffffffffffffffffffff167f20d6bac8359f33d79581bfd2b0457cb189fda6d90fed287ddc9f2ba3eb124b67346000803373ffffffffffffffffffffffffffffffffffffffff1673ffffffffffffffffffffffffffffffffffffffff1681526020019081526020016000205460405161015d9291906115ca565b60405180910390a25b005b600080fd5b34801561017957600080fd5b50610194600480360381019061018f9190611682565b6102d6565b6040516101a191906116c2565b60405180910390f35b3480156101b657600080fd5b506101d160048036038101906101cc91906116dd565b610540565b6040516101de91906116c2565b60405180910390f35b3480156101f357600080fd5b5061020e6004803603810190610209919061170a565b6105c9565b60405161021b91906116c2565b60405180910390f35b61022c610822565b60405161023991906116c2565b60405180910390f35b34801561024e57600080fd5b5061026960048036038101906102649190611682565b610954565b60405161027691906116c2565b60405180910390f35b34801561028b57600080fd5b50610294610c3d565b6040516102a29291906118b3565b60405180910390f35b3480156102b757600080fd5b506102c0610e3e565b6040516102cd91906116c2565b60405180910390f35b60008083905060008173ffffffffffffffffffffffffffffffffffffffff1663dd62ed3e33306040518363ffffffff1660e01b81526004016103199291906118f9565b60206040518083038186803b15801561033157600080fd5b505afa158015610345573d6000803e3d6000fd5b505050506040513d601f19601f820116820180604052508101906103699190611937565b9050838110156103ae576040517f08c379a00000000000000000000000000000000000000000000000000000000081526004016103a5906119e7565b60405180910390fd5b6103b88585610e84565b6103e53330868573ffffffffffffffffffffffffffffffffffffffff16610fcf909392919063ffffffff16565b3373ffffffffffffffffffffffffffffffffffffffff167feee1a9363c8cef3e5872690139669b46cb0b21d9c57d568d17b7b306d96694f78587600160003373ffffffffffffffffffffffffffffffffffffffff1673ffffffffffffffffffffffffffffffffffffffff16815260200190815260200160002060030160008a73ffffffffffffffffffffffffffffffffffffffff1673ffffffffffffffffffffffffffffffffffffffff168152602001908152602001600020546040516104ae93929190611a07565b60405180910390a2600160003373ffffffffffffffffffffffffffffffffffffffff1673ffffffffffffffffffffffffffffffffffffffff16815260200190815260200160002060030160008673ffffffffffffffffffffffffffffffffffffffff1673ffffffffffffffffffffffffffffffffffffffff168152602001908152602001600020549250505092915050565b6000600160003373ffffffffffffffffffffffffffffffffffffffff1673ffffffffffffffffffffffffffffffffffffffff16815260200190815260200160002060030160008373ffffffffffffffffffffffffffffffffffffffff1673ffffffffffffffffffffffffffffffffffffffff168152602001908152602001600020549050919050565b60008060003373ffffffffffffffffffffffffffffffffffffffff1673ffffffffffffffffffffffffffffffffffffffff1681526020019081526020016000205482111561064c576040517f08c379a000000000000000000000000000000000000000000000000000000000815260040161064390611a8a565b60405180910390fd5b816000803373ffffffffffffffffffffffffffffffffffffffff1673ffffffffffffffffffffffffffffffffffffffff168152602001908152602001600020600082825461069a9190611aaa565b9250508190555060003373ffffffffffffffffffffffffffffffffffffffff16836040516106c790611b0f565b60006040518083038185875af1925050503d8060008114610704576040519150601f19603f3d011682016040523d82523d6000602084013e610709565b606091505b505090508061074d576040517f08c379a000000000000000000000000000000000000000000000000000000000815260040161074490611b70565b60405180910390fd5b3373ffffffffffffffffffffffffffffffffffffffff167ffd68f27313402be52d2f46b6d391b7b8657000a3062853a4be930f1281072a01846000803373ffffffffffffffffffffffffffffffffffffffff1673ffffffffffffffffffffffffffffffffffffffff168152602001908152602001600020546040516107d39291906115ca565b60405180910390a26000803373ffffffffffffffffffffffffffffffffffffffff1673ffffffffffffffffffffffffffffffffffffffff16815260200190815260200160002054915050919050565b60008034111561091057346000803373ffffffffffffffffffffffffffffffffffffffff1673ffffffffffffffffffffffffffffffffffffffff168152602001908152602001600020600082825461087a9190611565565b925050819055503373ffffffffffffffffffffffffffffffffffffffff167f20d6bac8359f33d79581bfd2b0457cb189fda6d90fed287ddc9f2ba3eb124b67346000803373ffffffffffffffffffffffffffffffffffffffff1673ffffffffffffffffffffffffffffffffffffffff168152602001908152602001600020546040516109079291906115ca565b60405180910390a25b6000803373ffffffffffffffffffffffffffffffffffffffff1673ffffffffffffffffffffffffffffffffffffffff16815260200190815260200160002054905090565b600080600160003373ffffffffffffffffffffffffffffffffffffffff1673ffffffffffffffffffffffffffffffffffffffff16815260200190815260200160002060030160008573ffffffffffffffffffffffffffffffffffffffff1673ffffffffffffffffffffffffffffffffffffffff16815260200190815260200160002054905080831115610a1c576040517f08c379a0000000000000000000000000000000000000000000000000000000008152600401610a1390611bdc565b60405180910390fd5b82600160003373ffffffffffffffffffffffffffffffffffffffff1673ffffffffffffffffffffffffffffffffffffffff16815260200190815260200160002060030160008673ffffffffffffffffffffffffffffffffffffffff1673ffffffffffffffffffffffffffffffffffffffff1681526020019081526020016000206000828254610aab9190611aaa565b925050819055506000849050610ae233858373ffffffffffffffffffffffffffffffffffffffff166110589092919063ffffffff16565b3373ffffffffffffffffffffffffffffffffffffffff167f0cb81543c1ecccafd4bc229f691bfa2852411a73b026e7d7d58f1beec8dc4fe08587600160003373ffffffffffffffffffffffffffffffffffffffff1673ffffffffffffffffffffffffffffffffffffffff16815260200190815260200160002060030160008a73ffffffffffffffffffffffffffffffffffffffff1673ffffffffffffffffffffffffffffffffffffffff16815260200190815260200160002054604051610bab93929190611a07565b60405180910390a2600160003373ffffffffffffffffffffffffffffffffffffffff1673ffffffffffffffffffffffffffffffffffffffff16815260200190815260200160002060030160008673ffffffffffffffffffffffffffffffffffffffff1673ffffffffffffffffffffffffffffffffffffffff168152602001908152602001600020549250505092915050565b6060806000825167ffffffffffffffff811115610c5d57610c5c611bfc565b5b604051908082528060200260200182016040528015610c8b5781602001602082028036833780820191505090505b50905060005b8351811015610d6c576000848281518110610caf57610cae611c2b565b5b60200260200101519050600160003373ffffffffffffffffffffffffffffffffffffffff1673ffffffffffffffffffffffffffffffffffffffff16815260200190815260200160002060030160008273ffffffffffffffffffffffffffffffffffffffff1673ffffffffffffffffffffffffffffffffffffffff16815260200190815260200160002054838381518110610d4c57610d4b611c2b565b5b602002602001018181525050508080610d6490611c5a565b915050610c91565b50600160003373ffffffffffffffffffffffffffffffffffffffff1673ffffffffffffffffffffffffffffffffffffffff168152602001908152602001600020600001805480602002602001604051908101604052809291908181526020018280548015610e2f57602002820191906000526020600020905b8160009054906101000a900473ffffffffffffffffffffffffffffffffffffffff1673ffffffffffffffffffffffffffffffffffffffff1681526020019060010190808311610de5575b50505050509250809150509091565b60008060003373ffffffffffffffffffffffffffffffffffffffff1673ffffffffffffffffffffffffffffffffffffffff16815260200190815260200160002054905090565b610e8d826110de565b610f3557600160003373ffffffffffffffffffffffffffffffffffffffff1673ffffffffffffffffffffffffffffffffffffffff168152602001908152602001600020600001829080600181540180825580915050600190039060005260206000200160009091909190916101000a81548173ffffffffffffffffffffffffffffffffffffffff021916908373ffffffffffffffffffffffffffffffffffffffff1602179055505b80600160003373ffffffffffffffffffffffffffffffffffffffff1673ffffffffffffffffffffffffffffffffffffffff16815260200190815260200160002060030160008473ffffffffffffffffffffffffffffffffffffffff1673ffffffffffffffffffffffffffffffffffffffff1681526020019081526020016000206000828254610fc49190611565565b925050819055505050565b611052846323b872dd60e01b858585604051602401610ff093929190611ca3565b604051602081830303815290604052907bffffffffffffffffffffffffffffffffffffffffffffffffffffffff19166020820180517bffffffffffffffffffffffffffffffffffffffffffffffffffffffff83818316178352505050506112bf565b50505050565b6110d98363a9059cbb60e01b8484604051602401611077929190611cda565b604051602081830303815290604052907bffffffffffffffffffffffffffffffffffffffffffffffffffffffff19166020820180517bffffffffffffffffffffffffffffffffffffffffffffffffffffffff83818316178352505050506112bf565b505050565b600080600160003373ffffffffffffffffffffffffffffffffffffffff1673ffffffffffffffffffffffffffffffffffffffff16815260200190815260200160002060030160008473ffffffffffffffffffffffffffffffffffffffff1673ffffffffffffffffffffffffffffffffffffffff16815260200190815260200160002054111561117057600190506112ba565b6000600160003373ffffffffffffffffffffffffffffffffffffffff1673ffffffffffffffffffffffffffffffffffffffff16815260200190815260200160002060000180548060200260200160405190810160405280929190818152602001828054801561123457602002820191906000526020600020905b8160009054906101000a900473ffffffffffffffffffffffffffffffffffffffff1673ffffffffffffffffffffffffffffffffffffffff16815260200190600101908083116111ea575b5050505050905060005b81518110156112b3578373ffffffffffffffffffffffffffffffffffffffff1682828151811061127157611270611c2b565b5b602002602001015173ffffffffffffffffffffffffffffffffffffffff1614156112a0576001925050506112ba565b80806112ab90611c5a565b91505061123e565b5060009150505b919050565b6000611321826040518060400160405280602081526020017f5361666545524332303a206c6f772d6c6576656c2063616c6c206661696c65648152508573ffffffffffffffffffffffffffffffffffffffff166113869092919063ffffffff16565b905060008151111561138157808060200190518101906113419190611d3b565b611380576040517f08c379a000000000000000000000000000000000000000000000000000000000815260040161137790611dda565b60405180910390fd5b5b505050565b6060611395848460008561139e565b90509392505050565b6060824710156113e3576040517f08c379a00000000000000000000000000000000000000000000000000000000081526004016113da90611e6c565b60405180910390fd5b6113ec856114b2565b61142b576040517f08c379a000000000000000000000000000000000000000000000000000000000815260040161142290611ed8565b60405180910390fd5b6000808673ffffffffffffffffffffffffffffffffffffffff1685876040516114549190611f67565b60006040518083038185875af1925050503d8060008114611491576040519150601f19603f3d011682016040523d82523d6000602084013e611496565b606091505b50915091506114a68282866114c5565b92505050949350505050565b600080823b905060008111915050919050565b606083156114d557829050611525565b6000835111156114e85782518084602001fd5b816040517f08c379a000000000000000000000000000000000000000000000000000000000815260040161151c9190611fd3565b60405180910390fd5b9392505050565b6000819050919050565b7f4e487b7100000000000000000000000000000000000000000000000000000000600052601160045260246000fd5b60006115708261152c565b915061157b8361152c565b9250827fffffffffffffffffffffffffffffffffffffffffffffffffffffffffffffffff038211156115b0576115af611536565b5b828201905092915050565b6115c48161152c565b82525050565b60006040820190506115df60008301856115bb565b6115ec60208301846115bb565b9392505050565b600080fd5b600073ffffffffffffffffffffffffffffffffffffffff82169050919050565b6000611623826115f8565b9050919050565b61163381611618565b811461163e57600080fd5b50565b6000813590506116508161162a565b92915050565b61165f8161152c565b811461166a57600080fd5b50565b60008135905061167c81611656565b92915050565b60008060408385031215611699576116986115f3565b5b60006116a785828601611641565b92505060206116b88582860161166d565b9150509250929050565b60006020820190506116d760008301846115bb565b92915050565b6000602082840312156116f3576116f26115f3565b5b600061170184828501611641565b91505092915050565b6000602082840312156117205761171f6115f3565b5b600061172e8482850161166d565b91505092915050565b600081519050919050565b600082825260208201905092915050565b6000819050602082019050919050565b61176c81611618565b82525050565b600061177e8383611763565b60208301905092915050565b6000602082019050919050565b60006117a282611737565b6117ac8185611742565b93506117b783611753565b8060005b838110156117e85781516117cf8882611772565b97506117da8361178a565b9250506001810190506117bb565b5085935050505092915050565b600081519050919050565b600082825260208201905092915050565b6000819050602082019050919050565b61182a8161152c565b82525050565b600061183c8383611821565b60208301905092915050565b6000602082019050919050565b6000611860826117f5565b61186a8185611800565b935061187583611811565b8060005b838110156118a657815161188d8882611830565b975061189883611848565b925050600181019050611879565b5085935050505092915050565b600060408201905081810360008301526118cd8185611797565b905081810360208301526118e18184611855565b90509392505050565b6118f381611618565b82525050565b600060408201905061190e60008301856118ea565b61191b60208301846118ea565b9392505050565b60008151905061193181611656565b92915050565b60006020828403121561194d5761194c6115f3565b5b600061195b84828501611922565b91505092915050565b600082825260208201905092915050565b7f4e6f7420656e6f75676820746f6b656e20616c6c6f77616e636520746f20636f60008201527f6d706c65746520746865206465706f7369740000000000000000000000000000602082015250565b60006119d1603283611964565b91506119dc82611975565b604082019050919050565b60006020820190508181036000830152611a00816119c4565b9050919050565b6000606082019050611a1c60008301866115bb565b611a2960208301856118ea565b611a3660408301846115bb565b949350505050565b7f4e6f7420656e6f7567682065746865722062616c616e63650000000000000000600082015250565b6000611a74601883611964565b9150611a7f82611a3e565b602082019050919050565b60006020820190508181036000830152611aa381611a67565b9050919050565b6000611ab58261152c565b9150611ac08361152c565b925082821015611ad357611ad2611536565b5b828203905092915050565b600081905092915050565b50565b6000611af9600083611ade565b9150611b0482611ae9565b600082019050919050565b6000611b1a82611aec565b9150819050919050565b7f4661696c656420746f2077697468647261772045746865720000000000000000600082015250565b6000611b5a601883611964565b9150611b6582611b24565b602082019050919050565b60006020820190508181036000830152611b8981611b4d565b9050919050565b7f4e6f7420656e6f75676820746f6b656e2062616c616e63650000000000000000600082015250565b6000611bc6601883611964565b9150611bd182611b90565b602082019050919050565b60006020820190508181036000830152611bf581611bb9565b9050919050565b7f4e487b7100000000000000000000000000000000000000000000000000000000600052604160045260246000fd5b7f4e487b7100000000000000000000000000000000000000000000000000000000600052603260045260246000fd5b6000611c658261152c565b91507fffffffffffffffffffffffffffffffffffffffffffffffffffffffffffffffff821415611c9857611c97611536565b5b600182019050919050565b6000606082019050611cb860008301866118ea565b611cc560208301856118ea565b611cd260408301846115bb565b949350505050565b6000604082019050611cef60008301856118ea565b611cfc60208301846115bb565b9392505050565b60008115159050919050565b611d1881611d03565b8114611d2357600080fd5b50565b600081519050611d3581611d0f565b92915050565b600060208284031215611d5157611d506115f3565b5b6000611d5f84828501611d26565b91505092915050565b7f5361666545524332303a204552433230206f7065726174696f6e20646964206e60008201527f6f74207375636365656400000000000000000000000000000000000000000000602082015250565b6000611dc4602a83611964565b9150611dcf82611d68565b604082019050919050565b60006020820190508181036000830152611df381611db7565b9050919050565b7f416464726573733a20696e73756666696369656e742062616c616e636520666f60008201527f722063616c6c0000000000000000000000000000000000000000000000000000602082015250565b6000611e56602683611964565b9150611e6182611dfa565b604082019050919050565b60006020820190508181036000830152611e8581611e49565b9050919050565b7f416464726573733a2063616c6c20746f206e6f6e2d636f6e7472616374000000600082015250565b6000611ec2601d83611964565b9150611ecd82611e8c565b602082019050919050565b60006020820190508181036000830152611ef181611eb5565b9050919050565b600081519050919050565b60005b83811015611f21578082015181840152602081019050611f06565b83811115611f30576000848401525b50505050565b6000611f4182611ef8565b611f4b8185611ade565b9350611f5b818560208601611f03565b80840191505092915050565b6000611f738284611f36565b915081905092915050565b600081519050919050565b6000601f19601f8301169050919050565b6000611fa582611f7e565b611faf8185611964565b9350611fbf818560208601611f03565b611fc881611f89565b840191505092915050565b60006020820190508181036000830152611fed8184611f9a565b90509291505056fea2646970667358221220e5a2f29380e3e307470af917eb5b281e6d045cc105c37a5e1199f720a16d131464736f6c63430008090033",
  "immutableReferences": {},
  "source": "// SPDX-License-Identifier: GPL-3.0\n\npragma solidity 0.8.9;\n\n// import \"@openzeppelin/contracts/token/ERC20/ERC20.sol\";\n// import \"openzeppelin-solidity/contracts/token/ERC20/ERC20.sol\";\nimport \"openzeppelin-solidity/contracts/token/ERC20/IERC20.sol\";\nimport \"openzeppelin-solidity/contracts/token/ERC20/utils/SafeERC20.sol\";\n\nimport \"./EtherWallet.sol\";\n\n/// @title A smart contract wallet that stores ether and erc20 tokens\n/// @author Nikolaos Petridis\n/// @notice You can use this contract for only the most basic simulation\n/// @dev All function calls are currently implemented without side effects\ncontract DefiVault is EtherWallet {\n  using SafeERC20 for IERC20;\n\n  struct TokensLedger {\n    address[] tokens;\n\n    uint tokenRegistryCount;\n    mapping(uint => address) tokenIdToAddress;\n\n    // erc20 token address => user amount\n    mapping(address => uint256) balances;\n  }\n\n  mapping(address => TokensLedger) private tokenBalances; // user address => user wallet\n\n  event DepositERC20(address indexed sender, uint256 amount, address erc20Contract, uint256 newTotalBalance);\n  event WithdrawERC20(address indexed to, uint256 amount, address erc20Contract, uint256 balance);\n\n  // Q: Does this need to be payable? Is there any reason to have it if I dont use it?\n  fallback() external payable override {\n    revert();\n    // if (msg.value > 0) {\n    //   etherBalances[msg.sender] += msg.value;\n    //   emit Deposit(msg.sender, msg.value, etherBalances[msg.sender]);\n    // }\n  }\n\n  /// @notice Get the ERC20 token balance of the sender\n  /// @param tokenAddress address of the ERC20 token contract\n  /// @return The requested token balance of the sender\n  function getTokenBalance(address tokenAddress)\n    public\n    view\n    returns (uint256)\n  {\n    return tokenBalances[msg.sender].balances[tokenAddress];\n  }\n\n  /// @notice Get the user ERC20 tokens and their balances\n  /// @return tokens The requested token balance of the sender\n  /// @return balances The requested token balance of the sender\n  function getTokens() public view returns (address[] memory tokens, uint256[] memory balances) {\n    uint256[] memory _balances = new uint256[](tokens.length);\n    for (uint i = 0; i < tokens.length; i++) {\n      address tokenAddress = tokens[i];\n      _balances[i] = tokenBalances[msg.sender].balances[tokenAddress];\n    }\n\n    tokens = tokenBalances[msg.sender].tokens;\n    balances = _balances;\n  }\n\n  /// @notice Returns true when the sender has already registered the requested token address\n  /// @param tokenAddress address of the ERC20 token contract\n  /// @return True if the sender has registered the token, false otherwise\n  function hasRegisteredToken(address tokenAddress) internal view returns (bool) {\n    // if user has balance > 0 the token is already registered\n    if (tokenBalances[msg.sender].balances[tokenAddress] > 0) {\n      return true;\n    }\n\n    address[] memory userTokens = tokenBalances[msg.sender].tokens;\n    // if token exists in userTokens then it is registered\n    for (uint i = 0; i < userTokens.length; i++) {\n      if (userTokens[i] == tokenAddress) {\n        return true;\n      }\n    }\n    return false;\n  }\n\n  /// @notice Updates users token ledger balance by registering it in the tokens list and adding the deposited amount\n  /// @param tokenAddress address of the ERC20 token contract\n  /// @param amount amount to be added to the token balance\n  function addTokenBalance(address tokenAddress, uint amount) internal {\n    if (!hasRegisteredToken(tokenAddress)) {\n      tokenBalances[msg.sender].tokens.push(tokenAddress);\n    }\n    // Q: Is the += statement with safe math?\n    tokenBalances[msg.sender].balances[tokenAddress] += amount;\n  }\n\n  /// @notice Deposit ERC20 token to the wallet (requires sender approval first)\n  /// @param tokenAddress address of the ERC20 token contract\n  /// @param amount amount of ERC20 token to deposit\n  /// @return The ERC20 token balance of the sender\n  function depositToken(address tokenAddress, uint256 amount)\n    public\n    returns (uint256)\n  {\n    IERC20 token = IERC20(tokenAddress);\n\n    uint256 allowance = token.allowance(msg.sender, address(this));\n    require(allowance >= amount, 'Not enough token allowance to complete the deposit');\n\n    addTokenBalance(tokenAddress, amount);\n    token.safeTransferFrom(msg.sender, address(this), amount);\n\n    emit DepositERC20(msg.sender, amount, tokenAddress, tokenBalances[msg.sender].balances[tokenAddress]);\n    return tokenBalances[msg.sender].balances[tokenAddress];\n  }\n\n  /// @notice Withdraw ERC20 token to the sender's address\n  /// @param tokenAddress address of the ERC20 token contract\n  /// @param amount amount of ERC20 token to withdraw\n  /// @return The ERC20 token balance of the sender\n  function withdrawToken(address tokenAddress, uint256 amount)\n    public\n    returns (uint256)\n  {\n    uint256 tokenBalance = tokenBalances[msg.sender].balances[tokenAddress];\n    require(amount <= tokenBalance, \"Not enough token balance\");\n\n    // Avoids reentancy SWC-107, Q: is it enough or I need a reentrancy guard modifier?\n    tokenBalances[msg.sender].balances[tokenAddress] -= amount;\n\n    IERC20 token = IERC20(tokenAddress);\n    token.safeTransfer(msg.sender, amount);\n    // Q: Could the user provide a malicious contract address that has no tranfer function\n    // and that by executing his own code in fallback function could exploit this contract?\n\n    emit WithdrawERC20(msg.sender, amount, tokenAddress, tokenBalances[msg.sender].balances[tokenAddress]);\n    return tokenBalances[msg.sender].balances[tokenAddress];\n  }\n}\n",
  "sourcePath": "/Users/nikospetridis/projects/blockchain/blockchain-developer-bootcamp-final-project/smart-contracts/contracts/DefiVault.sol",
  "compiler": {
    "name": "solc",
    "version": "0.8.9+commit.e5eed63a.Emscripten.clang"
  },
  "schemaVersion": "3.4.3",
  "updatedAt": "2021-11-09T20:44:53.319Z",
  "networkType": "ethereum",
  "devdoc": {
    "author": "Nikolaos Petridis",
    "details": "All function calls are currently implemented without side effects",
    "kind": "dev",
    "methods": {
      "depositEther()": {
        "returns": {
          "_0": "The new ether balance of the sender"
        }
      },
      "depositToken(address,uint256)": {
        "params": {
          "amount": "amount of ERC20 token to deposit",
          "tokenAddress": "address of the ERC20 token contract"
        },
        "returns": {
          "_0": "The ERC20 token balance of the sender"
        }
      },
      "getEtherBalance()": {
        "returns": {
          "_0": "The ether balance of the sender"
        }
      },
      "getTokenBalance(address)": {
        "params": {
          "tokenAddress": "address of the ERC20 token contract"
        },
        "returns": {
          "_0": "The requested token balance of the sender"
        }
      },
      "getTokens()": {
        "returns": {
          "balances": "The requested token balance of the sender",
          "tokens": "The requested token balance of the sender"
        }
      },
      "withdrawEther(uint256)": {
        "params": {
          "amount": "ether amount you want to withdraw"
        },
        "returns": {
          "_0": "The new ether balance of the sender"
        }
      },
      "withdrawToken(address,uint256)": {
        "params": {
          "amount": "amount of ERC20 token to withdraw",
          "tokenAddress": "address of the ERC20 token contract"
        },
        "returns": {
          "_0": "The ERC20 token balance of the sender"
        }
      }
    },
    "title": "A smart contract wallet that stores ether and erc20 tokens",
    "version": 1
  },
  "userdoc": {
    "kind": "user",
    "methods": {
      "depositEther()": {
        "notice": "Deposit ether to wallet"
      },
      "depositToken(address,uint256)": {
        "notice": "Deposit ERC20 token to the wallet (requires sender approval first)"
      },
      "getEtherBalance()": {
        "notice": "Get the ether balance of the sender"
      },
      "getTokenBalance(address)": {
        "notice": "Get the ERC20 token balance of the sender"
      },
      "getTokens()": {
        "notice": "Get the user ERC20 tokens and their balances"
      },
      "withdrawEther(uint256)": {
        "notice": "Withdraw ether from wallet to sender address"
      },
      "withdrawToken(address,uint256)": {
        "notice": "Withdraw ERC20 token to the sender's address"
      }
    },
    "notice": "You can use this contract for only the most basic simulation",
    "version": 1
  }
}