{
  "contractName": "DefiVault",
  "abi": [
    {
      "anonymous": false,
      "inputs": [
        {
          "indexed": true,
          "internalType": "address",
          "name": "sender",
          "type": "address"
        },
        {
          "indexed": false,
          "internalType": "uint256",
          "name": "amount",
          "type": "uint256"
        },
        {
          "indexed": false,
          "internalType": "address",
          "name": "erc20Contract",
          "type": "address"
        },
        {
          "indexed": false,
          "internalType": "uint256",
          "name": "newTotalBalance",
          "type": "uint256"
        }
      ],
      "name": "DepositERC20",
      "type": "event"
    },
    {
      "anonymous": false,
      "inputs": [
        {
          "indexed": true,
          "internalType": "address",
          "name": "sender",
          "type": "address"
        },
        {
          "indexed": false,
          "internalType": "uint256",
          "name": "amount",
          "type": "uint256"
        },
        {
          "indexed": false,
          "internalType": "uint256",
          "name": "balance",
          "type": "uint256"
        }
      ],
      "name": "DepositEther",
      "type": "event"
    },
    {
      "anonymous": false,
      "inputs": [
        {
          "indexed": true,
          "internalType": "address",
          "name": "owner",
          "type": "address"
        },
        {
          "indexed": false,
          "internalType": "address",
          "name": "cErc20Contract",
          "type": "address"
        },
        {
          "indexed": false,
          "internalType": "uint256",
          "name": "suppliedCTokenAmount",
          "type": "uint256"
        },
        {
          "indexed": false,
          "internalType": "address",
          "name": "underlyingErc20Contract",
          "type": "address"
        },
        {
          "indexed": false,
          "internalType": "uint256",
          "name": "redeemedErc20Amount",
          "type": "uint256"
        }
      ],
      "name": "RedeemERC20",
      "type": "event"
    },
    {
      "anonymous": false,
      "inputs": [
        {
          "indexed": true,
          "internalType": "address",
          "name": "owner",
          "type": "address"
        },
        {
          "indexed": false,
          "internalType": "address",
          "name": "underlyingErc20Contract",
          "type": "address"
        },
        {
          "indexed": false,
          "internalType": "uint256",
          "name": "suppliedErc20Amount",
          "type": "uint256"
        },
        {
          "indexed": false,
          "internalType": "address",
          "name": "cErc20Contract",
          "type": "address"
        },
        {
          "indexed": false,
          "internalType": "uint256",
          "name": "mintedCTokenAmount",
          "type": "uint256"
        }
      ],
      "name": "SupplyERC20",
      "type": "event"
    },
    {
      "anonymous": false,
      "inputs": [
        {
          "indexed": true,
          "internalType": "address",
          "name": "to",
          "type": "address"
        },
        {
          "indexed": false,
          "internalType": "uint256",
          "name": "amount",
          "type": "uint256"
        },
        {
          "indexed": false,
          "internalType": "address",
          "name": "erc20Contract",
          "type": "address"
        },
        {
          "indexed": false,
          "internalType": "uint256",
          "name": "balance",
          "type": "uint256"
        }
      ],
      "name": "WithdrawERC20",
      "type": "event"
    },
    {
      "anonymous": false,
      "inputs": [
        {
          "indexed": true,
          "internalType": "address",
          "name": "to",
          "type": "address"
        },
        {
          "indexed": false,
          "internalType": "uint256",
          "name": "amount",
          "type": "uint256"
        },
        {
          "indexed": false,
          "internalType": "uint256",
          "name": "balance",
          "type": "uint256"
        }
      ],
      "name": "WithdrawEther",
      "type": "event"
    },
    {
      "stateMutability": "payable",
      "type": "fallback",
      "payable": true
    },
    {
      "inputs": [],
      "name": "depositEther",
      "outputs": [
        {
          "internalType": "uint256",
          "name": "",
          "type": "uint256"
        }
      ],
      "stateMutability": "payable",
      "type": "function",
      "payable": true
    },
    {
      "inputs": [],
      "name": "getEtherBalance",
      "outputs": [
        {
          "internalType": "uint256",
          "name": "",
          "type": "uint256"
        }
      ],
      "stateMutability": "view",
      "type": "function",
      "constant": true
    },
    {
      "inputs": [
        {
          "internalType": "uint256",
          "name": "amount",
          "type": "uint256"
        }
      ],
      "name": "withdrawEther",
      "outputs": [
        {
          "internalType": "uint256",
          "name": "",
          "type": "uint256"
        }
      ],
      "stateMutability": "nonpayable",
      "type": "function"
    },
    {
      "stateMutability": "payable",
      "type": "receive",
      "payable": true
    },
    {
      "inputs": [
        {
          "internalType": "address",
          "name": "tokenAddress",
          "type": "address"
        }
      ],
      "name": "getTokenBalance",
      "outputs": [
        {
          "internalType": "uint256",
          "name": "",
          "type": "uint256"
        }
      ],
      "stateMutability": "view",
      "type": "function",
      "constant": true
    },
    {
      "inputs": [],
      "name": "getTokens",
      "outputs": [
        {
          "internalType": "address[]",
          "name": "tokens",
          "type": "address[]"
        },
        {
          "internalType": "uint256[]",
          "name": "balances",
          "type": "uint256[]"
        }
      ],
      "stateMutability": "view",
      "type": "function",
      "constant": true
    },
    {
      "inputs": [
        {
          "internalType": "address",
          "name": "tokenAddress",
          "type": "address"
        },
        {
          "internalType": "uint256",
          "name": "amount",
          "type": "uint256"
        }
      ],
      "name": "depositToken",
      "outputs": [
        {
          "internalType": "uint256",
          "name": "",
          "type": "uint256"
        }
      ],
      "stateMutability": "nonpayable",
      "type": "function"
    },
    {
      "inputs": [
        {
          "internalType": "address",
          "name": "tokenAddress",
          "type": "address"
        },
        {
          "internalType": "uint256",
          "name": "amount",
          "type": "uint256"
        }
      ],
      "name": "withdrawToken",
      "outputs": [
        {
          "internalType": "uint256",
          "name": "",
          "type": "uint256"
        }
      ],
      "stateMutability": "nonpayable",
      "type": "function"
    },
    {
      "inputs": [
        {
          "internalType": "address",
          "name": "_erc20Contract",
          "type": "address"
        },
        {
          "internalType": "address",
          "name": "_cErc20Contract",
          "type": "address"
        },
        {
          "internalType": "uint256",
          "name": "_numTokensToSupply",
          "type": "uint256"
        }
      ],
      "name": "supplyErc20ToCompound",
      "outputs": [
        {
          "internalType": "uint256",
          "name": "",
          "type": "uint256"
        }
      ],
      "stateMutability": "nonpayable",
      "type": "function"
    },
    {
      "inputs": [
        {
          "internalType": "uint256",
          "name": "_cTokenAmount",
          "type": "uint256"
        },
        {
          "internalType": "address",
          "name": "_cErc20Contract",
          "type": "address"
        }
      ],
      "name": "redeemCErc20Tokens",
      "outputs": [
        {
          "internalType": "uint256",
          "name": "",
          "type": "uint256"
        }
      ],
      "stateMutability": "nonpayable",
      "type": "function"
    }
  ],
  "bytecode": "0x608060405234801561001057600080fd5b5060018081905550612e62806100276000396000f3fe60806040526004361061008a5760003560e01c806384fea6671161005957806384fea6671461027757806398ea5fca146102b45780639e281a98146102d2578063aa6ca8081461030f578063ea46193e1461033b5761017e565b8063338b5dea146101835780633aecd0e3146101c05780633b7ba25f146101fd5780633bed33ce1461023a5761017e565b3661017e57600034111561017c57346000803373ffffffffffffffffffffffffffffffffffffffff1673ffffffffffffffffffffffffffffffffffffffff16815260200190815260200160002060008282546100e69190612025565b925050819055503373ffffffffffffffffffffffffffffffffffffffff167f20d6bac8359f33d79581bfd2b0457cb189fda6d90fed287ddc9f2ba3eb124b67346000803373ffffffffffffffffffffffffffffffffffffffff1673ffffffffffffffffffffffffffffffffffffffff1681526020019081526020016000205460405161017392919061208a565b60405180910390a25b005b600080fd5b34801561018f57600080fd5b506101aa60048036038101906101a59190612142565b610366565b6040516101b79190612182565b60405180910390f35b3480156101cc57600080fd5b506101e760048036038101906101e2919061219d565b6105d0565b6040516101f49190612182565b60405180910390f35b34801561020957600080fd5b50610224600480360381019061021f91906121ca565b610659565b6040516102319190612182565b60405180910390f35b34801561024657600080fd5b50610261600480360381019061025c919061221d565b610aba565b60405161026e9190612182565b60405180910390f35b34801561028357600080fd5b5061029e6004803603810190610299919061224a565b610d13565b6040516102ab9190612182565b60405180910390f35b6102bc6111c0565b6040516102c99190612182565b60405180910390f35b3480156102de57600080fd5b506102f960048036038101906102f49190612142565b6112f2565b6040516103069190612182565b60405180910390f35b34801561031b57600080fd5b50610324611631565b604051610332929190612406565b60405180910390f35b34801561034757600080fd5b506103506118fe565b60405161035d9190612182565b60405180910390f35b60008083905060008173ffffffffffffffffffffffffffffffffffffffff1663dd62ed3e33306040518363ffffffff1660e01b81526004016103a992919061244c565b60206040518083038186803b1580156103c157600080fd5b505afa1580156103d5573d6000803e3d6000fd5b505050506040513d601f19601f820116820180604052508101906103f9919061248a565b90508381101561043e576040517f08c379a00000000000000000000000000000000000000000000000000000000081526004016104359061253a565b60405180910390fd5b6104488585611944565b6104753330868573ffffffffffffffffffffffffffffffffffffffff16611a8f909392919063ffffffff16565b3373ffffffffffffffffffffffffffffffffffffffff167feee1a9363c8cef3e5872690139669b46cb0b21d9c57d568d17b7b306d96694f78587600260003373ffffffffffffffffffffffffffffffffffffffff1673ffffffffffffffffffffffffffffffffffffffff16815260200190815260200160002060030160008a73ffffffffffffffffffffffffffffffffffffffff1673ffffffffffffffffffffffffffffffffffffffff1681526020019081526020016000205460405161053e9392919061255a565b60405180910390a2600260003373ffffffffffffffffffffffffffffffffffffffff1673ffffffffffffffffffffffffffffffffffffffff16815260200190815260200160002060030160008673ffffffffffffffffffffffffffffffffffffffff1673ffffffffffffffffffffffffffffffffffffffff168152602001908152602001600020549250505092915050565b6000600260003373ffffffffffffffffffffffffffffffffffffffff1673ffffffffffffffffffffffffffffffffffffffff16815260200190815260200160002060030160008373ffffffffffffffffffffffffffffffffffffffff1673ffffffffffffffffffffffffffffffffffffffff168152602001908152602001600020549050919050565b60008084905060008490506000600260003373ffffffffffffffffffffffffffffffffffffffff1673ffffffffffffffffffffffffffffffffffffffff16815260200190815260200160002060030160008873ffffffffffffffffffffffffffffffffffffffff1673ffffffffffffffffffffffffffffffffffffffff1681526020019081526020016000205490508481101561072b576040517f08c379a000000000000000000000000000000000000000000000000000000000815260040161072290612603565b60405180910390fd5b84600260003373ffffffffffffffffffffffffffffffffffffffff1673ffffffffffffffffffffffffffffffffffffffff16815260200190815260200160002060030160008973ffffffffffffffffffffffffffffffffffffffff1673ffffffffffffffffffffffffffffffffffffffff16815260200190815260200160002060008282546107ba9190612623565b925050819055508273ffffffffffffffffffffffffffffffffffffffff1663095ea7b387876040518363ffffffff1660e01b81526004016107fc929190612657565b602060405180830381600087803b15801561081657600080fd5b505af115801561082a573d6000803e3d6000fd5b505050506040513d601f19601f8201168201806040525081019061084e91906126b8565b5060008273ffffffffffffffffffffffffffffffffffffffff166370a08231306040518263ffffffff1660e01b815260040161088a91906126e5565b60206040518083038186803b1580156108a257600080fd5b505afa1580156108b6573d6000803e3d6000fd5b505050506040513d601f19601f820116820180604052508101906108da919061248a565b905060008373ffffffffffffffffffffffffffffffffffffffff1663a0712d68886040518263ffffffff1660e01b81526004016109179190612182565b602060405180830381600087803b15801561093157600080fd5b505af1158015610945573d6000803e3d6000fd5b505050506040513d601f19601f82011682018060405250810190610969919061248a565b9050600081146109ae576040517f08c379a00000000000000000000000000000000000000000000000000000000081526004016109a59061274c565b60405180910390fd5b60008473ffffffffffffffffffffffffffffffffffffffff166370a08231306040518263ffffffff1660e01b81526004016109e991906126e5565b60206040518083038186803b158015610a0157600080fd5b505afa158015610a15573d6000803e3d6000fd5b505050506040513d601f19601f82011682018060405250810190610a39919061248a565b905060008382610a499190612623565b9050610a558a82611944565b3373ffffffffffffffffffffffffffffffffffffffff167f4c077d34ec92781bf96e6b24049cc2179b44f7b0baa68a7144f59d4051ecc07d8c8b8d85604051610aa1949392919061276c565b60405180910390a2829750505050505050509392505050565b60008060003373ffffffffffffffffffffffffffffffffffffffff1673ffffffffffffffffffffffffffffffffffffffff16815260200190815260200160002054821115610b3d576040517f08c379a0000000000000000000000000000000000000000000000000000000008152600401610b34906127fd565b60405180910390fd5b816000803373ffffffffffffffffffffffffffffffffffffffff1673ffffffffffffffffffffffffffffffffffffffff1681526020019081526020016000206000828254610b8b9190612623565b9250508190555060003373ffffffffffffffffffffffffffffffffffffffff1683604051610bb89061284e565b60006040518083038185875af1925050503d8060008114610bf5576040519150601f19603f3d011682016040523d82523d6000602084013e610bfa565b606091505b5050905080610c3e576040517f08c379a0000000000000000000000000000000000000000000000000000000008152600401610c35906128af565b60405180910390fd5b3373ffffffffffffffffffffffffffffffffffffffff167ffd68f27313402be52d2f46b6d391b7b8657000a3062853a4be930f1281072a01846000803373ffffffffffffffffffffffffffffffffffffffff1673ffffffffffffffffffffffffffffffffffffffff16815260200190815260200160002054604051610cc492919061208a565b60405180910390a26000803373ffffffffffffffffffffffffffffffffffffffff1673ffffffffffffffffffffffffffffffffffffffff16815260200190815260200160002054915050919050565b600060026001541415610d5b576040517f08c379a0000000000000000000000000000000000000000000000000000000008152600401610d529061291b565b60405180910390fd5b600260018190555060008290506000600260003373ffffffffffffffffffffffffffffffffffffffff1673ffffffffffffffffffffffffffffffffffffffff16815260200190815260200160002060030160008573ffffffffffffffffffffffffffffffffffffffff1673ffffffffffffffffffffffffffffffffffffffff16815260200190815260200160002054905080851115610e2f576040517f08c379a0000000000000000000000000000000000000000000000000000000008152600401610e2690612987565b60405180910390fd5b60008273ffffffffffffffffffffffffffffffffffffffff16636f307dc36040518163ffffffff1660e01b8152600401602060405180830381600087803b158015610e7957600080fd5b505af1158015610e8d573d6000803e3d6000fd5b505050506040513d601f19601f82011682018060405250810190610eb191906129bc565b9050600081905086600260003373ffffffffffffffffffffffffffffffffffffffff1673ffffffffffffffffffffffffffffffffffffffff16815260200190815260200160002060030160008873ffffffffffffffffffffffffffffffffffffffff1673ffffffffffffffffffffffffffffffffffffffff1681526020019081526020016000206000828254610f479190612623565b9250508190555060008173ffffffffffffffffffffffffffffffffffffffff166370a08231306040518263ffffffff1660e01b8152600401610f8991906126e5565b60206040518083038186803b158015610fa157600080fd5b505afa158015610fb5573d6000803e3d6000fd5b505050506040513d601f19601f82011682018060405250810190610fd9919061248a565b905060008573ffffffffffffffffffffffffffffffffffffffff1663db006a758a6040518263ffffffff1660e01b81526004016110169190612182565b602060405180830381600087803b15801561103057600080fd5b505af1158015611044573d6000803e3d6000fd5b505050506040513d601f19601f82011682018060405250810190611068919061248a565b9050600081146110ad576040517f08c379a00000000000000000000000000000000000000000000000000000000081526004016110a490612a35565b60405180910390fd5b60008373ffffffffffffffffffffffffffffffffffffffff166370a08231306040518263ffffffff1660e01b81526004016110e891906126e5565b60206040518083038186803b15801561110057600080fd5b505afa158015611114573d6000803e3d6000fd5b505050506040513d601f19601f82011682018060405250810190611138919061248a565b9050600083826111489190612623565b90506111548682611944565b3373ffffffffffffffffffffffffffffffffffffffff167f8fccdf2db32ffa016dea6aafce4fb9d78722cc209fd57c47193d8c2bb2a719468b8d89856040516111a0949392919061276c565b60405180910390a280985050505050505050506001808190555092915050565b6000803411156112ae57346000803373ffffffffffffffffffffffffffffffffffffffff1673ffffffffffffffffffffffffffffffffffffffff16815260200190815260200160002060008282546112189190612025565b925050819055503373ffffffffffffffffffffffffffffffffffffffff167f20d6bac8359f33d79581bfd2b0457cb189fda6d90fed287ddc9f2ba3eb124b67346000803373ffffffffffffffffffffffffffffffffffffffff1673ffffffffffffffffffffffffffffffffffffffff168152602001908152602001600020546040516112a592919061208a565b60405180910390a25b6000803373ffffffffffffffffffffffffffffffffffffffff1673ffffffffffffffffffffffffffffffffffffffff16815260200190815260200160002054905090565b60006002600154141561133a576040517f08c379a00000000000000000000000000000000000000000000000000000000081526004016113319061291b565b60405180910390fd5b60026001819055506000600260003373ffffffffffffffffffffffffffffffffffffffff1673ffffffffffffffffffffffffffffffffffffffff16815260200190815260200160002060030160008573ffffffffffffffffffffffffffffffffffffffff1673ffffffffffffffffffffffffffffffffffffffff16815260200190815260200160002054905080831115611409576040517f08c379a000000000000000000000000000000000000000000000000000000000815260040161140090612aa1565b60405180910390fd5b82600260003373ffffffffffffffffffffffffffffffffffffffff1673ffffffffffffffffffffffffffffffffffffffff16815260200190815260200160002060030160008673ffffffffffffffffffffffffffffffffffffffff1673ffffffffffffffffffffffffffffffffffffffff16815260200190815260200160002060008282546114989190612623565b9250508190555060008490506114cf33858373ffffffffffffffffffffffffffffffffffffffff16611b189092919063ffffffff16565b3373ffffffffffffffffffffffffffffffffffffffff167f0cb81543c1ecccafd4bc229f691bfa2852411a73b026e7d7d58f1beec8dc4fe08587600260003373ffffffffffffffffffffffffffffffffffffffff1673ffffffffffffffffffffffffffffffffffffffff16815260200190815260200160002060030160008a73ffffffffffffffffffffffffffffffffffffffff1673ffffffffffffffffffffffffffffffffffffffff168152602001908152602001600020546040516115989392919061255a565b60405180910390a2600260003373ffffffffffffffffffffffffffffffffffffffff1673ffffffffffffffffffffffffffffffffffffffff16815260200190815260200160002060030160008673ffffffffffffffffffffffffffffffffffffffff1673ffffffffffffffffffffffffffffffffffffffff16815260200190815260200160002054925050506001808190555092915050565b6060806000600260003373ffffffffffffffffffffffffffffffffffffffff1673ffffffffffffffffffffffffffffffffffffffff1681526020019081526020016000206000018054806020026020016040519081016040528092919081815260200182805480156116f857602002820191906000526020600020905b8160009054906101000a900473ffffffffffffffffffffffffffffffffffffffff1673ffffffffffffffffffffffffffffffffffffffff16815260200190600101908083116116ae575b505050505090506000815167ffffffffffffffff81111561171c5761171b612ac1565b5b60405190808252806020026020018201604052801561174a5781602001602082028036833780820191505090505b50905060005b825181101561182b57600083828151811061176e5761176d612af0565b5b60200260200101519050600260003373ffffffffffffffffffffffffffffffffffffffff1673ffffffffffffffffffffffffffffffffffffffff16815260200190815260200160002060030160008273ffffffffffffffffffffffffffffffffffffffff1673ffffffffffffffffffffffffffffffffffffffff1681526020019081526020016000205483838151811061180b5761180a612af0565b5b60200260200101818152505050808061182390612b1f565b915050611750565b50600260003373ffffffffffffffffffffffffffffffffffffffff1673ffffffffffffffffffffffffffffffffffffffff1681526020019081526020016000206000018054806020026020016040519081016040528092919081815260200182805480156118ee57602002820191906000526020600020905b8160009054906101000a900473ffffffffffffffffffffffffffffffffffffffff1673ffffffffffffffffffffffffffffffffffffffff16815260200190600101908083116118a4575b5050505050935080925050509091565b60008060003373ffffffffffffffffffffffffffffffffffffffff1673ffffffffffffffffffffffffffffffffffffffff16815260200190815260200160002054905090565b61194d82611b9e565b6119f557600260003373ffffffffffffffffffffffffffffffffffffffff1673ffffffffffffffffffffffffffffffffffffffff168152602001908152602001600020600001829080600181540180825580915050600190039060005260206000200160009091909190916101000a81548173ffffffffffffffffffffffffffffffffffffffff021916908373ffffffffffffffffffffffffffffffffffffffff1602179055505b80600260003373ffffffffffffffffffffffffffffffffffffffff1673ffffffffffffffffffffffffffffffffffffffff16815260200190815260200160002060030160008473ffffffffffffffffffffffffffffffffffffffff1673ffffffffffffffffffffffffffffffffffffffff1681526020019081526020016000206000828254611a849190612025565b925050819055505050565b611b12846323b872dd60e01b858585604051602401611ab093929190612b68565b604051602081830303815290604052907bffffffffffffffffffffffffffffffffffffffffffffffffffffffff19166020820180517bffffffffffffffffffffffffffffffffffffffffffffffffffffffff8381831617835250505050611d7f565b50505050565b611b998363a9059cbb60e01b8484604051602401611b37929190612657565b604051602081830303815290604052907bffffffffffffffffffffffffffffffffffffffffffffffffffffffff19166020820180517bffffffffffffffffffffffffffffffffffffffffffffffffffffffff8381831617835250505050611d7f565b505050565b600080600260003373ffffffffffffffffffffffffffffffffffffffff1673ffffffffffffffffffffffffffffffffffffffff16815260200190815260200160002060030160008473ffffffffffffffffffffffffffffffffffffffff1673ffffffffffffffffffffffffffffffffffffffff168152602001908152602001600020541115611c305760019050611d7a565b6000600260003373ffffffffffffffffffffffffffffffffffffffff1673ffffffffffffffffffffffffffffffffffffffff168152602001908152602001600020600001805480602002602001604051908101604052809291908181526020018280548015611cf457602002820191906000526020600020905b8160009054906101000a900473ffffffffffffffffffffffffffffffffffffffff1673ffffffffffffffffffffffffffffffffffffffff1681526020019060010190808311611caa575b5050505050905060005b8151811015611d73578373ffffffffffffffffffffffffffffffffffffffff16828281518110611d3157611d30612af0565b5b602002602001015173ffffffffffffffffffffffffffffffffffffffff161415611d6057600192505050611d7a565b8080611d6b90612b1f565b915050611cfe565b5060009150505b919050565b6000611de1826040518060400160405280602081526020017f5361666545524332303a206c6f772d6c6576656c2063616c6c206661696c65648152508573ffffffffffffffffffffffffffffffffffffffff16611e469092919063ffffffff16565b9050600081511115611e415780806020019051810190611e0191906126b8565b611e40576040517f08c379a0000000000000000000000000000000000000000000000000000000008152600401611e3790612c11565b60405180910390fd5b5b505050565b6060611e558484600085611e5e565b90509392505050565b606082471015611ea3576040517f08c379a0000000000000000000000000000000000000000000000000000000008152600401611e9a90612ca3565b60405180910390fd5b611eac85611f72565b611eeb576040517f08c379a0000000000000000000000000000000000000000000000000000000008152600401611ee290612d0f565b60405180910390fd5b6000808673ffffffffffffffffffffffffffffffffffffffff168587604051611f149190612d9e565b60006040518083038185875af1925050503d8060008114611f51576040519150601f19603f3d011682016040523d82523d6000602084013e611f56565b606091505b5091509150611f66828286611f85565b92505050949350505050565b600080823b905060008111915050919050565b60608315611f9557829050611fe5565b600083511115611fa85782518084602001fd5b816040517f08c379a0000000000000000000000000000000000000000000000000000000008152600401611fdc9190612e0a565b60405180910390fd5b9392505050565b6000819050919050565b7f4e487b7100000000000000000000000000000000000000000000000000000000600052601160045260246000fd5b600061203082611fec565b915061203b83611fec565b9250827fffffffffffffffffffffffffffffffffffffffffffffffffffffffffffffffff038211156120705761206f611ff6565b5b828201905092915050565b61208481611fec565b82525050565b600060408201905061209f600083018561207b565b6120ac602083018461207b565b9392505050565b600080fd5b600073ffffffffffffffffffffffffffffffffffffffff82169050919050565b60006120e3826120b8565b9050919050565b6120f3816120d8565b81146120fe57600080fd5b50565b600081359050612110816120ea565b92915050565b61211f81611fec565b811461212a57600080fd5b50565b60008135905061213c81612116565b92915050565b60008060408385031215612159576121586120b3565b5b600061216785828601612101565b92505060206121788582860161212d565b9150509250929050565b6000602082019050612197600083018461207b565b92915050565b6000602082840312156121b3576121b26120b3565b5b60006121c184828501612101565b91505092915050565b6000806000606084860312156121e3576121e26120b3565b5b60006121f186828701612101565b935050602061220286828701612101565b92505060406122138682870161212d565b9150509250925092565b600060208284031215612233576122326120b3565b5b60006122418482850161212d565b91505092915050565b60008060408385031215612261576122606120b3565b5b600061226f8582860161212d565b925050602061228085828601612101565b9150509250929050565b600081519050919050565b600082825260208201905092915050565b6000819050602082019050919050565b6122bf816120d8565b82525050565b60006122d183836122b6565b60208301905092915050565b6000602082019050919050565b60006122f58261228a565b6122ff8185612295565b935061230a836122a6565b8060005b8381101561233b57815161232288826122c5565b975061232d836122dd565b92505060018101905061230e565b5085935050505092915050565b600081519050919050565b600082825260208201905092915050565b6000819050602082019050919050565b61237d81611fec565b82525050565b600061238f8383612374565b60208301905092915050565b6000602082019050919050565b60006123b382612348565b6123bd8185612353565b93506123c883612364565b8060005b838110156123f95781516123e08882612383565b97506123eb8361239b565b9250506001810190506123cc565b5085935050505092915050565b6000604082019050818103600083015261242081856122ea565b9050818103602083015261243481846123a8565b90509392505050565b612446816120d8565b82525050565b6000604082019050612461600083018561243d565b61246e602083018461243d565b9392505050565b60008151905061248481612116565b92915050565b6000602082840312156124a05761249f6120b3565b5b60006124ae84828501612475565b91505092915050565b600082825260208201905092915050565b7f4e6f7420656e6f75676820746f6b656e20616c6c6f77616e636520746f20636f60008201527f6d706c65746520746865206465706f7369740000000000000000000000000000602082015250565b60006125246032836124b7565b915061252f826124c8565b604082019050919050565b6000602082019050818103600083015261255381612517565b9050919050565b600060608201905061256f600083018661207b565b61257c602083018561243d565b612589604083018461207b565b949350505050565b7f4e6f7420656e6f75676820746f6b656e20657263323020746f6b656e2062616c60008201527f616e636520746f20737570706c79000000000000000000000000000000000000602082015250565b60006125ed602e836124b7565b91506125f882612591565b604082019050919050565b6000602082019050818103600083015261261c816125e0565b9050919050565b600061262e82611fec565b915061263983611fec565b92508282101561264c5761264b611ff6565b5b828203905092915050565b600060408201905061266c600083018561243d565b612679602083018461207b565b9392505050565b60008115159050919050565b61269581612680565b81146126a057600080fd5b50565b6000815190506126b28161268c565b92915050565b6000602082840312156126ce576126cd6120b3565b5b60006126dc848285016126a3565b91505092915050565b60006020820190506126fa600083018461243d565b92915050565b7f4d696e74696e67206661696c6564000000000000000000000000000000000000600082015250565b6000612736600e836124b7565b915061274182612700565b602082019050919050565b6000602082019050818103600083015261276581612729565b9050919050565b6000608082019050612781600083018761243d565b61278e602083018661207b565b61279b604083018561243d565b6127a8606083018461207b565b95945050505050565b7f4e6f7420656e6f7567682065746865722062616c616e63650000000000000000600082015250565b60006127e76018836124b7565b91506127f2826127b1565b602082019050919050565b60006020820190508181036000830152612816816127da565b9050919050565b600081905092915050565b50565b600061283860008361281d565b915061284382612828565b600082019050919050565b60006128598261282b565b9150819050919050565b7f4661696c656420746f2077697468647261772045746865720000000000000000600082015250565b60006128996018836124b7565b91506128a482612863565b602082019050919050565b600060208201905081810360008301526128c88161288c565b9050919050565b7f5265656e7472616e637947756172643a207265656e7472616e742063616c6c00600082015250565b6000612905601f836124b7565b9150612910826128cf565b602082019050919050565b60006020820190508181036000830152612934816128f8565b9050919050565b7f4e6f7420656e6f7567682063546f6b656e2062616c616e636500000000000000600082015250565b60006129716019836124b7565b915061297c8261293b565b602082019050919050565b600060208201905081810360008301526129a081612964565b9050919050565b6000815190506129b6816120ea565b92915050565b6000602082840312156129d2576129d16120b3565b5b60006129e0848285016129a7565b91505092915050565b7f43546f6b656e20526564656d7074696f6e206661696c65640000000000000000600082015250565b6000612a1f6018836124b7565b9150612a2a826129e9565b602082019050919050565b60006020820190508181036000830152612a4e81612a12565b9050919050565b7f4e6f7420656e6f75676820746f6b656e2062616c616e63650000000000000000600082015250565b6000612a8b6018836124b7565b9150612a9682612a55565b602082019050919050565b60006020820190508181036000830152612aba81612a7e565b9050919050565b7f4e487b7100000000000000000000000000000000000000000000000000000000600052604160045260246000fd5b7f4e487b7100000000000000000000000000000000000000000000000000000000600052603260045260246000fd5b6000612b2a82611fec565b91507fffffffffffffffffffffffffffffffffffffffffffffffffffffffffffffffff821415612b5d57612b5c611ff6565b5b600182019050919050565b6000606082019050612b7d600083018661243d565b612b8a602083018561243d565b612b97604083018461207b565b949350505050565b7f5361666545524332303a204552433230206f7065726174696f6e20646964206e60008201527f6f74207375636365656400000000000000000000000000000000000000000000602082015250565b6000612bfb602a836124b7565b9150612c0682612b9f565b604082019050919050565b60006020820190508181036000830152612c2a81612bee565b9050919050565b7f416464726573733a20696e73756666696369656e742062616c616e636520666f60008201527f722063616c6c0000000000000000000000000000000000000000000000000000602082015250565b6000612c8d6026836124b7565b9150612c9882612c31565b604082019050919050565b60006020820190508181036000830152612cbc81612c80565b9050919050565b7f416464726573733a2063616c6c20746f206e6f6e2d636f6e7472616374000000600082015250565b6000612cf9601d836124b7565b9150612d0482612cc3565b602082019050919050565b60006020820190508181036000830152612d2881612cec565b9050919050565b600081519050919050565b60005b83811015612d58578082015181840152602081019050612d3d565b83811115612d67576000848401525b50505050565b6000612d7882612d2f565b612d82818561281d565b9350612d92818560208601612d3a565b80840191505092915050565b6000612daa8284612d6d565b915081905092915050565b600081519050919050565b6000601f19601f8301169050919050565b6000612ddc82612db5565b612de681856124b7565b9350612df6818560208601612d3a565b612dff81612dc0565b840191505092915050565b60006020820190508181036000830152612e248184612dd1565b90509291505056fea26469706673582212200414ed22b1c9cc652a3db1c08fcd9e7bf5764e3705c3ee6352087b257458e56064736f6c63430008090033",
  "immutableReferences": {},
  "source": "// SPDX-License-Identifier: GPL-3.0\n\npragma solidity 0.8.9;\n\n// import \"@openzeppelin/contracts/token/ERC20/ERC20.sol\";\n// import \"openzeppelin-solidity/contracts/token/ERC20/ERC20.sol\";\nimport \"openzeppelin-solidity/contracts/token/ERC20/IERC20.sol\";\nimport \"openzeppelin-solidity/contracts/token/ERC20/utils/SafeERC20.sol\";\nimport 'openzeppelin-solidity/contracts/security/ReentrancyGuard.sol';\nimport \"./CErc20.sol\";\n\nimport \"./EtherWallet.sol\";\n\n/// @title A smart contract wallet that stores ether and erc20 tokens and supplies erc20 tokens to compound.finance\n/// @author Nikolaos Petridis\n/// @notice You can use this contract for only the most basic simulation\n/// @dev All function calls are currently implemented without side effects\ncontract DefiVault is EtherWallet, ReentrancyGuard {\n  using SafeERC20 for IERC20;\n\n  struct TokensLedger {\n    address[] tokens;\n\n    uint tokenRegistryCount;\n    mapping(uint => address) tokenIdToAddress;\n\n    // erc20 token address => user amount\n    mapping(address => uint256) balances;\n  }\n\n  mapping(address => TokensLedger) private tokenBalances; // user address => user wallet\n\n  event DepositERC20(address indexed sender, uint256 amount, address erc20Contract, uint256 newTotalBalance);\n  event WithdrawERC20(address indexed to, uint256 amount, address erc20Contract, uint256 balance);\n  event SupplyERC20(address indexed owner, address underlyingErc20Contract, uint256 suppliedErc20Amount, address cErc20Contract, uint256 mintedCTokenAmount);\n  event RedeemERC20(address indexed owner, address cErc20Contract, uint256 suppliedCTokenAmount, address underlyingErc20Contract, uint256 redeemedErc20Amount);\n\n  // Q: Does this need to be payable? Is there any reason to have it if I dont use it?\n  fallback() external payable override {\n    revert();\n    // if (msg.value > 0) {\n    //   etherBalances[msg.sender] += msg.value;\n    //   emit Deposit(msg.sender, msg.value, etherBalances[msg.sender]);\n    // }\n  }\n\n  /// @notice Get the ERC20 token balance of the sender\n  /// @param tokenAddress address of the ERC20 token contract\n  /// @return The requested token balance of the sender\n  function getTokenBalance(address tokenAddress)\n    public\n    view\n    returns (uint256)\n  {\n    return tokenBalances[msg.sender].balances[tokenAddress];\n  }\n\n  /// @notice Get the user ERC20 tokens and their balances\n  /// @return tokens The requested token balance of the sender\n  /// @return balances The requested token balance of the sender\n  function getTokens() public view returns (address[] memory tokens, uint256[] memory balances) {\n    address[] memory userTokens = tokenBalances[msg.sender].tokens;\n    uint256[] memory _balances = new uint256[](userTokens.length);\n    for (uint i = 0; i < userTokens.length; i++) {\n      address tokenAddress = userTokens[i];\n      _balances[i] = tokenBalances[msg.sender].balances[tokenAddress];\n    }\n\n    tokens = tokenBalances[msg.sender].tokens;\n    balances = _balances;\n  }\n\n  /// @notice Returns true when the sender has already registered the requested token address\n  /// @param tokenAddress address of the ERC20 token contract\n  /// @return True if the sender has registered the token, false otherwise\n  function hasRegisteredToken(address tokenAddress) private view returns (bool) {\n    // if user has balance > 0 the token is already registered\n    if (tokenBalances[msg.sender].balances[tokenAddress] > 0) {\n      return true;\n    }\n\n    address[] memory userTokens = tokenBalances[msg.sender].tokens;\n    // if token exists in userTokens then it is registered\n    for (uint i = 0; i < userTokens.length; i++) {\n      if (userTokens[i] == tokenAddress) {\n        return true;\n      }\n    }\n    return false;\n  }\n\n  /// @notice Updates users token ledger balance by registering it in the tokens list and adding the deposited amount\n  /// @param tokenAddress address of the ERC20 token contract\n  /// @param amount amount to be added to the token balance\n  function addTokenBalance(address tokenAddress, uint amount) private {\n    if (!hasRegisteredToken(tokenAddress)) {\n      tokenBalances[msg.sender].tokens.push(tokenAddress);\n    }\n    // Q: Is the += statement with safe math?\n    tokenBalances[msg.sender].balances[tokenAddress] += amount;\n  }\n\n  /// @notice Deposit ERC20 token to the wallet (requires sender approval first)\n  /// @param tokenAddress address of the ERC20 token contract\n  /// @param amount amount of ERC20 token to deposit\n  /// @return The ERC20 token balance of the sender\n  function depositToken(address tokenAddress, uint256 amount)\n    external\n    returns (uint256)\n  {\n    IERC20 token = IERC20(tokenAddress);\n\n    uint256 allowance = token.allowance(msg.sender, address(this));\n    require(allowance >= amount, 'Not enough token allowance to complete the deposit');\n\n    addTokenBalance(tokenAddress, amount);\n    token.safeTransferFrom(msg.sender, address(this), amount);\n\n    emit DepositERC20(msg.sender, amount, tokenAddress, tokenBalances[msg.sender].balances[tokenAddress]);\n    return tokenBalances[msg.sender].balances[tokenAddress];\n  }\n\n  /// @notice Withdraw ERC20 token to the sender's address\n  /// @param tokenAddress address of the ERC20 token contract\n  /// @param amount amount of ERC20 token to withdraw\n  /// @return The ERC20 token balance of the sender\n  function withdrawToken(\n    address tokenAddress,\n    uint256 amount\n  ) external nonReentrant returns (uint256) {\n    uint256 tokenBalance = tokenBalances[msg.sender].balances[tokenAddress];\n    require(amount <= tokenBalance, \"Not enough token balance\");\n\n    // Avoids reentancy SWC-107, Q: is it enough or I need a reentrancy guard modifier?\n    tokenBalances[msg.sender].balances[tokenAddress] -= amount;\n\n    IERC20 token = IERC20(tokenAddress);\n    token.safeTransfer(msg.sender, amount);\n\n    emit WithdrawERC20(msg.sender, amount, tokenAddress, tokenBalances[msg.sender].balances[tokenAddress]);\n    return tokenBalances[msg.sender].balances[tokenAddress];\n  }\n\n  function supplyErc20ToCompound(\n    address _erc20Contract,\n    address _cErc20Contract,\n    uint256 _numTokensToSupply\n  ) external returns (uint) {\n    // Create a reference to the underlying asset contract, like DAI.\n    IERC20 underlying = IERC20(_erc20Contract);\n\n    // Create a reference to the corresponding cToken contract, like cDAI\n    CErc20 cToken = CErc20(_cErc20Contract);\n\n    uint256 underlyingTokenBalance = tokenBalances[msg.sender].balances[_erc20Contract];\n    require(underlyingTokenBalance >= _numTokensToSupply, 'Not enough token erc20 token balance to supply');\n    tokenBalances[msg.sender].balances[_erc20Contract] -= _numTokensToSupply;\n\n    underlying.approve(_cErc20Contract, _numTokensToSupply);\n\n    uint256 cTokenBalanceBefore = cToken.balanceOf(address(this));\n    // Mint cTokens\n    uint mintResult = cToken.mint(_numTokensToSupply);\n    require(mintResult == 0, 'Minting failed');\n\n    uint256 cTokenBalanceAfter = cToken.balanceOf(address(this));\n    uint256 cTokenBalanceDiff = cTokenBalanceAfter - cTokenBalanceBefore;\n\n    addTokenBalance(_cErc20Contract, cTokenBalanceDiff);\n\n    emit SupplyERC20(msg.sender, _erc20Contract, _numTokensToSupply, _cErc20Contract, cTokenBalanceDiff);\n    return mintResult;\n  }\n\n  function redeemCErc20Tokens(\n    uint256 _cTokenAmount,\n    address _cErc20Contract\n  ) external nonReentrant returns (uint256) {\n    // Create a reference to the corresponding cToken contract, like cDAI\n    CErc20 cToken = CErc20(_cErc20Contract);\n\n    uint256 userCTokenBalance = tokenBalances[msg.sender].balances[_cErc20Contract];\n    require(_cTokenAmount <= userCTokenBalance, 'Not enough cToken balance');\n\n    address underlyingContract = cToken.underlying();\n    IERC20 underlying = IERC20(underlyingContract);\n\n    tokenBalances[msg.sender].balances[_cErc20Contract] -= _cTokenAmount;\n\n    uint256 erc20BalanceBefore = underlying.balanceOf(address(this));\n    uint256 redeemResult = cToken.redeem(_cTokenAmount);\n    require(redeemResult == 0, 'CToken Redemption failed');\n    uint256 erc20BalanceAfter = underlying.balanceOf(address(this));\n\n    uint256 erc20BalanceDiff = erc20BalanceAfter - erc20BalanceBefore;\n\n    addTokenBalance(underlyingContract, erc20BalanceDiff);\n\n    emit RedeemERC20(msg.sender, _cErc20Contract, _cTokenAmount, underlyingContract, erc20BalanceDiff);\n    return erc20BalanceDiff;\n  }\n}\n",
  "sourcePath": "/Users/nikospetridis/projects/blockchain/blockchain-developer-bootcamp-final-project/smart-contracts/contracts/DefiVault.sol",
  "compiler": {
    "name": "solc",
    "version": "0.8.9+commit.e5eed63a.Emscripten.clang"
  },
  "schemaVersion": "3.4.3",
  "updatedAt": "2021-11-25T01:30:21.308Z",
  "networkType": "ethereum",
  "devdoc": {
    "author": "Nikolaos Petridis",
    "details": "All function calls are currently implemented without side effects",
    "kind": "dev",
    "methods": {
      "depositEther()": {
        "returns": {
          "_0": "The new ether balance of the sender"
        }
      },
      "depositToken(address,uint256)": {
        "params": {
          "amount": "amount of ERC20 token to deposit",
          "tokenAddress": "address of the ERC20 token contract"
        },
        "returns": {
          "_0": "The ERC20 token balance of the sender"
        }
      },
      "getEtherBalance()": {
        "returns": {
          "_0": "The ether balance of the sender"
        }
      },
      "getTokenBalance(address)": {
        "params": {
          "tokenAddress": "address of the ERC20 token contract"
        },
        "returns": {
          "_0": "The requested token balance of the sender"
        }
      },
      "getTokens()": {
        "returns": {
          "balances": "The requested token balance of the sender",
          "tokens": "The requested token balance of the sender"
        }
      },
      "withdrawEther(uint256)": {
        "params": {
          "amount": "ether amount you want to withdraw"
        },
        "returns": {
          "_0": "The new ether balance of the sender"
        }
      },
      "withdrawToken(address,uint256)": {
        "params": {
          "amount": "amount of ERC20 token to withdraw",
          "tokenAddress": "address of the ERC20 token contract"
        },
        "returns": {
          "_0": "The ERC20 token balance of the sender"
        }
      }
    },
    "title": "A smart contract wallet that stores ether and erc20 tokens and supplies erc20 tokens to compound.finance",
    "version": 1
  },
  "userdoc": {
    "kind": "user",
    "methods": {
      "depositEther()": {
        "notice": "Deposit ether to wallet"
      },
      "depositToken(address,uint256)": {
        "notice": "Deposit ERC20 token to the wallet (requires sender approval first)"
      },
      "getEtherBalance()": {
        "notice": "Get the ether balance of the sender"
      },
      "getTokenBalance(address)": {
        "notice": "Get the ERC20 token balance of the sender"
      },
      "getTokens()": {
        "notice": "Get the user ERC20 tokens and their balances"
      },
      "withdrawEther(uint256)": {
        "notice": "Withdraw ether from wallet to sender address"
      },
      "withdrawToken(address,uint256)": {
        "notice": "Withdraw ERC20 token to the sender's address"
      }
    },
    "notice": "You can use this contract for only the most basic simulation",
    "version": 1
  }
}