{
  "contractName": "DefiVault",
  "abi": [
    {
      "anonymous": false,
      "inputs": [
        {
          "indexed": true,
          "internalType": "address",
          "name": "sender",
          "type": "address"
        },
        {
          "indexed": false,
          "internalType": "uint256",
          "name": "amount",
          "type": "uint256"
        },
        {
          "indexed": false,
          "internalType": "address",
          "name": "erc20Contract",
          "type": "address"
        },
        {
          "indexed": false,
          "internalType": "uint256",
          "name": "newTotalBalance",
          "type": "uint256"
        }
      ],
      "name": "DepositERC20",
      "type": "event"
    },
    {
      "anonymous": false,
      "inputs": [
        {
          "indexed": true,
          "internalType": "address",
          "name": "sender",
          "type": "address"
        },
        {
          "indexed": false,
          "internalType": "uint256",
          "name": "amount",
          "type": "uint256"
        },
        {
          "indexed": false,
          "internalType": "uint256",
          "name": "balance",
          "type": "uint256"
        }
      ],
      "name": "DepositEther",
      "type": "event"
    },
    {
      "anonymous": false,
      "inputs": [
        {
          "indexed": true,
          "internalType": "address",
          "name": "owner",
          "type": "address"
        },
        {
          "indexed": false,
          "internalType": "address",
          "name": "cErc20Contract",
          "type": "address"
        },
        {
          "indexed": false,
          "internalType": "uint256",
          "name": "suppliedCTokenAmount",
          "type": "uint256"
        },
        {
          "indexed": false,
          "internalType": "address",
          "name": "underlyingErc20Contract",
          "type": "address"
        },
        {
          "indexed": false,
          "internalType": "uint256",
          "name": "redeemedErc20Amount",
          "type": "uint256"
        }
      ],
      "name": "RedeemERC20",
      "type": "event"
    },
    {
      "anonymous": false,
      "inputs": [
        {
          "indexed": true,
          "internalType": "address",
          "name": "owner",
          "type": "address"
        },
        {
          "indexed": false,
          "internalType": "address",
          "name": "underlyingErc20Contract",
          "type": "address"
        },
        {
          "indexed": false,
          "internalType": "uint256",
          "name": "suppliedErc20Amount",
          "type": "uint256"
        },
        {
          "indexed": false,
          "internalType": "address",
          "name": "cErc20Contract",
          "type": "address"
        },
        {
          "indexed": false,
          "internalType": "uint256",
          "name": "mintedCTokenAmount",
          "type": "uint256"
        }
      ],
      "name": "SupplyERC20",
      "type": "event"
    },
    {
      "anonymous": false,
      "inputs": [
        {
          "indexed": true,
          "internalType": "address",
          "name": "to",
          "type": "address"
        },
        {
          "indexed": false,
          "internalType": "uint256",
          "name": "amount",
          "type": "uint256"
        },
        {
          "indexed": false,
          "internalType": "address",
          "name": "erc20Contract",
          "type": "address"
        },
        {
          "indexed": false,
          "internalType": "uint256",
          "name": "newTotalBalance",
          "type": "uint256"
        }
      ],
      "name": "WithdrawERC20",
      "type": "event"
    },
    {
      "anonymous": false,
      "inputs": [
        {
          "indexed": true,
          "internalType": "address",
          "name": "to",
          "type": "address"
        },
        {
          "indexed": false,
          "internalType": "uint256",
          "name": "amount",
          "type": "uint256"
        },
        {
          "indexed": false,
          "internalType": "uint256",
          "name": "balance",
          "type": "uint256"
        }
      ],
      "name": "WithdrawEther",
      "type": "event"
    },
    {
      "stateMutability": "payable",
      "type": "fallback",
      "payable": true
    },
    {
      "inputs": [],
      "name": "depositEther",
      "outputs": [
        {
          "internalType": "uint256",
          "name": "",
          "type": "uint256"
        }
      ],
      "stateMutability": "payable",
      "type": "function",
      "payable": true
    },
    {
      "inputs": [],
      "name": "getEtherBalance",
      "outputs": [
        {
          "internalType": "uint256",
          "name": "",
          "type": "uint256"
        }
      ],
      "stateMutability": "view",
      "type": "function",
      "constant": true
    },
    {
      "inputs": [
        {
          "internalType": "uint256",
          "name": "amount",
          "type": "uint256"
        }
      ],
      "name": "withdrawEther",
      "outputs": [
        {
          "internalType": "uint256",
          "name": "",
          "type": "uint256"
        }
      ],
      "stateMutability": "nonpayable",
      "type": "function"
    },
    {
      "stateMutability": "payable",
      "type": "receive",
      "payable": true
    },
    {
      "inputs": [
        {
          "internalType": "address",
          "name": "tokenAddress",
          "type": "address"
        }
      ],
      "name": "getTokenBalance",
      "outputs": [
        {
          "internalType": "uint256",
          "name": "",
          "type": "uint256"
        }
      ],
      "stateMutability": "view",
      "type": "function",
      "constant": true
    },
    {
      "inputs": [],
      "name": "getTokens",
      "outputs": [
        {
          "internalType": "address[]",
          "name": "tokens",
          "type": "address[]"
        },
        {
          "internalType": "uint256[]",
          "name": "balances",
          "type": "uint256[]"
        }
      ],
      "stateMutability": "view",
      "type": "function",
      "constant": true
    },
    {
      "inputs": [
        {
          "internalType": "address",
          "name": "tokenAddress",
          "type": "address"
        },
        {
          "internalType": "uint256",
          "name": "amount",
          "type": "uint256"
        }
      ],
      "name": "depositToken",
      "outputs": [
        {
          "internalType": "uint256",
          "name": "",
          "type": "uint256"
        }
      ],
      "stateMutability": "nonpayable",
      "type": "function"
    },
    {
      "inputs": [
        {
          "internalType": "address",
          "name": "tokenAddress",
          "type": "address"
        },
        {
          "internalType": "uint256",
          "name": "amount",
          "type": "uint256"
        }
      ],
      "name": "withdrawToken",
      "outputs": [
        {
          "internalType": "uint256",
          "name": "",
          "type": "uint256"
        }
      ],
      "stateMutability": "nonpayable",
      "type": "function"
    },
    {
      "inputs": [
        {
          "internalType": "address",
          "name": "_erc20Contract",
          "type": "address"
        },
        {
          "internalType": "address",
          "name": "_cErc20Contract",
          "type": "address"
        },
        {
          "internalType": "uint256",
          "name": "_numTokensToSupply",
          "type": "uint256"
        }
      ],
      "name": "supplyErc20ToCompound",
      "outputs": [
        {
          "internalType": "uint256",
          "name": "",
          "type": "uint256"
        }
      ],
      "stateMutability": "nonpayable",
      "type": "function"
    },
    {
      "inputs": [
        {
          "internalType": "uint256",
          "name": "_cTokenAmount",
          "type": "uint256"
        },
        {
          "internalType": "address",
          "name": "_cErc20Contract",
          "type": "address"
        }
      ],
      "name": "redeemCErc20Tokens",
      "outputs": [
        {
          "internalType": "uint256",
          "name": "",
          "type": "uint256"
        }
      ],
      "stateMutability": "nonpayable",
      "type": "function"
    }
  ],
  "bytecode": "0x608060405234801561001057600080fd5b50600180819055506132e7806100276000396000f3fe60806040526004361061008a5760003560e01c806384fea6671161005957806384fea6671461027757806398ea5fca146102b45780639e281a98146102d2578063aa6ca8081461030f578063ea46193e1461033b5761017e565b8063338b5dea146101835780633aecd0e3146101c05780633b7ba25f146101fd5780633bed33ce1461023a5761017e565b3661017e57600034111561017c57346000803373ffffffffffffffffffffffffffffffffffffffff1673ffffffffffffffffffffffffffffffffffffffff16815260200190815260200160002060008282546100e6919061231a565b925050819055503373ffffffffffffffffffffffffffffffffffffffff167f20d6bac8359f33d79581bfd2b0457cb189fda6d90fed287ddc9f2ba3eb124b67346000803373ffffffffffffffffffffffffffffffffffffffff1673ffffffffffffffffffffffffffffffffffffffff1681526020019081526020016000205460405161017392919061237f565b60405180910390a25b005b600080fd5b34801561018f57600080fd5b506101aa60048036038101906101a59190612437565b610366565b6040516101b79190612477565b60405180910390f35b3480156101cc57600080fd5b506101e760048036038101906101e29190612492565b610668565b6040516101f49190612477565b60405180910390f35b34801561020957600080fd5b50610224600480360381019061021f91906124bf565b6106f1565b6040516102319190612477565b60405180910390f35b34801561024657600080fd5b50610261600480360381019061025c9190612512565b610c81565b60405161026e9190612477565b60405180910390f35b34801561028357600080fd5b5061029e6004803603810190610299919061253f565b610eda565b6040516102ab9190612477565b60405180910390f35b6102bc61141e565b6040516102c99190612477565b60405180910390f35b3480156102de57600080fd5b506102f960048036038101906102f49190612437565b611550565b6040516103069190612477565b60405180910390f35b34801561031b57600080fd5b50610324611926565b6040516103329291906126fb565b60405180910390f35b34801561034757600080fd5b50610350611bf3565b60405161035d9190612477565b60405180910390f35b60006103878373ffffffffffffffffffffffffffffffffffffffff16611c39565b80156103c05750600073ffffffffffffffffffffffffffffffffffffffff168373ffffffffffffffffffffffffffffffffffffffff1614155b6103ff576040517f08c379a00000000000000000000000000000000000000000000000000000000081526004016103f69061278f565b60405180910390fd5b600083905060008173ffffffffffffffffffffffffffffffffffffffff1663dd62ed3e33306040518363ffffffff1660e01b81526004016104419291906127be565b60206040518083038186803b15801561045957600080fd5b505afa15801561046d573d6000803e3d6000fd5b505050506040513d601f19601f8201168201806040525081019061049191906127fc565b9050838110156104d6576040517f08c379a00000000000000000000000000000000000000000000000000000000081526004016104cd9061289b565b60405180910390fd5b6104e08585611c4c565b61050d3330868573ffffffffffffffffffffffffffffffffffffffff16611d97909392919063ffffffff16565b3373ffffffffffffffffffffffffffffffffffffffff167feee1a9363c8cef3e5872690139669b46cb0b21d9c57d568d17b7b306d96694f78587600260003373ffffffffffffffffffffffffffffffffffffffff1673ffffffffffffffffffffffffffffffffffffffff16815260200190815260200160002060030160008a73ffffffffffffffffffffffffffffffffffffffff1673ffffffffffffffffffffffffffffffffffffffff168152602001908152602001600020546040516105d6939291906128bb565b60405180910390a2600260003373ffffffffffffffffffffffffffffffffffffffff1673ffffffffffffffffffffffffffffffffffffffff16815260200190815260200160002060030160008673ffffffffffffffffffffffffffffffffffffffff1673ffffffffffffffffffffffffffffffffffffffff168152602001908152602001600020549250505092915050565b6000600260003373ffffffffffffffffffffffffffffffffffffffff1673ffffffffffffffffffffffffffffffffffffffff16815260200190815260200160002060030160008373ffffffffffffffffffffffffffffffffffffffff1673ffffffffffffffffffffffffffffffffffffffff168152602001908152602001600020549050919050565b60006107128473ffffffffffffffffffffffffffffffffffffffff16611c39565b801561074b5750600073ffffffffffffffffffffffffffffffffffffffff168473ffffffffffffffffffffffffffffffffffffffff1614155b61078a576040517f08c379a000000000000000000000000000000000000000000000000000000000815260040161078190612964565b60405180910390fd5b6107a98373ffffffffffffffffffffffffffffffffffffffff16611c39565b80156107e25750600073ffffffffffffffffffffffffffffffffffffffff168373ffffffffffffffffffffffffffffffffffffffff1614155b610821576040517f08c379a0000000000000000000000000000000000000000000000000000000008152600401610818906129f6565b60405180910390fd5b600084905060008490506000600260003373ffffffffffffffffffffffffffffffffffffffff1673ffffffffffffffffffffffffffffffffffffffff16815260200190815260200160002060030160008873ffffffffffffffffffffffffffffffffffffffff1673ffffffffffffffffffffffffffffffffffffffff168152602001908152602001600020549050848110156108f2576040517f08c379a00000000000000000000000000000000000000000000000000000000081526004016108e990612a88565b60405180910390fd5b84600260003373ffffffffffffffffffffffffffffffffffffffff1673ffffffffffffffffffffffffffffffffffffffff16815260200190815260200160002060030160008973ffffffffffffffffffffffffffffffffffffffff1673ffffffffffffffffffffffffffffffffffffffff16815260200190815260200160002060008282546109819190612aa8565b925050819055508273ffffffffffffffffffffffffffffffffffffffff1663095ea7b387876040518363ffffffff1660e01b81526004016109c3929190612adc565b602060405180830381600087803b1580156109dd57600080fd5b505af11580156109f1573d6000803e3d6000fd5b505050506040513d601f19601f82011682018060405250810190610a159190612b3d565b5060008273ffffffffffffffffffffffffffffffffffffffff166370a08231306040518263ffffffff1660e01b8152600401610a519190612b6a565b60206040518083038186803b158015610a6957600080fd5b505afa158015610a7d573d6000803e3d6000fd5b505050506040513d601f19601f82011682018060405250810190610aa191906127fc565b905060008373ffffffffffffffffffffffffffffffffffffffff1663a0712d68886040518263ffffffff1660e01b8152600401610ade9190612477565b602060405180830381600087803b158015610af857600080fd5b505af1158015610b0c573d6000803e3d6000fd5b505050506040513d601f19601f82011682018060405250810190610b3091906127fc565b905060008114610b75576040517f08c379a0000000000000000000000000000000000000000000000000000000008152600401610b6c90612bd1565b60405180910390fd5b60008473ffffffffffffffffffffffffffffffffffffffff166370a08231306040518263ffffffff1660e01b8152600401610bb09190612b6a565b60206040518083038186803b158015610bc857600080fd5b505afa158015610bdc573d6000803e3d6000fd5b505050506040513d601f19601f82011682018060405250810190610c0091906127fc565b905060008382610c109190612aa8565b9050610c1c8a82611c4c565b3373ffffffffffffffffffffffffffffffffffffffff167f4c077d34ec92781bf96e6b24049cc2179b44f7b0baa68a7144f59d4051ecc07d8c8b8d85604051610c689493929190612bf1565b60405180910390a2829750505050505050509392505050565b60008060003373ffffffffffffffffffffffffffffffffffffffff1673ffffffffffffffffffffffffffffffffffffffff16815260200190815260200160002054821115610d04576040517f08c379a0000000000000000000000000000000000000000000000000000000008152600401610cfb90612c82565b60405180910390fd5b816000803373ffffffffffffffffffffffffffffffffffffffff1673ffffffffffffffffffffffffffffffffffffffff1681526020019081526020016000206000828254610d529190612aa8565b9250508190555060003373ffffffffffffffffffffffffffffffffffffffff1683604051610d7f90612cd3565b60006040518083038185875af1925050503d8060008114610dbc576040519150601f19603f3d011682016040523d82523d6000602084013e610dc1565b606091505b5050905080610e05576040517f08c379a0000000000000000000000000000000000000000000000000000000008152600401610dfc90612d34565b60405180910390fd5b3373ffffffffffffffffffffffffffffffffffffffff167ffd68f27313402be52d2f46b6d391b7b8657000a3062853a4be930f1281072a01846000803373ffffffffffffffffffffffffffffffffffffffff1673ffffffffffffffffffffffffffffffffffffffff16815260200190815260200160002054604051610e8b92919061237f565b60405180910390a26000803373ffffffffffffffffffffffffffffffffffffffff1673ffffffffffffffffffffffffffffffffffffffff16815260200190815260200160002054915050919050565b600060026001541415610f22576040517f08c379a0000000000000000000000000000000000000000000000000000000008152600401610f1990612da0565b60405180910390fd5b6002600181905550610f498273ffffffffffffffffffffffffffffffffffffffff16611c39565b8015610f825750600073ffffffffffffffffffffffffffffffffffffffff168273ffffffffffffffffffffffffffffffffffffffff1614155b610fc1576040517f08c379a0000000000000000000000000000000000000000000000000000000008152600401610fb89061278f565b60405180910390fd5b60008290506000600260003373ffffffffffffffffffffffffffffffffffffffff1673ffffffffffffffffffffffffffffffffffffffff16815260200190815260200160002060030160008573ffffffffffffffffffffffffffffffffffffffff1673ffffffffffffffffffffffffffffffffffffffff1681526020019081526020016000205490508085111561108d576040517f08c379a000000000000000000000000000000000000000000000000000000000815260040161108490612e0c565b60405180910390fd5b60008273ffffffffffffffffffffffffffffffffffffffff16636f307dc36040518163ffffffff1660e01b8152600401602060405180830381600087803b1580156110d757600080fd5b505af11580156110eb573d6000803e3d6000fd5b505050506040513d601f19601f8201168201806040525081019061110f9190612e41565b9050600081905086600260003373ffffffffffffffffffffffffffffffffffffffff1673ffffffffffffffffffffffffffffffffffffffff16815260200190815260200160002060030160008873ffffffffffffffffffffffffffffffffffffffff1673ffffffffffffffffffffffffffffffffffffffff16815260200190815260200160002060008282546111a59190612aa8565b9250508190555060008173ffffffffffffffffffffffffffffffffffffffff166370a08231306040518263ffffffff1660e01b81526004016111e79190612b6a565b60206040518083038186803b1580156111ff57600080fd5b505afa158015611213573d6000803e3d6000fd5b505050506040513d601f19601f8201168201806040525081019061123791906127fc565b905060008573ffffffffffffffffffffffffffffffffffffffff1663db006a758a6040518263ffffffff1660e01b81526004016112749190612477565b602060405180830381600087803b15801561128e57600080fd5b505af11580156112a2573d6000803e3d6000fd5b505050506040513d601f19601f820116820180604052508101906112c691906127fc565b90506000811461130b576040517f08c379a000000000000000000000000000000000000000000000000000000000815260040161130290612eba565b60405180910390fd5b60008373ffffffffffffffffffffffffffffffffffffffff166370a08231306040518263ffffffff1660e01b81526004016113469190612b6a565b60206040518083038186803b15801561135e57600080fd5b505afa158015611372573d6000803e3d6000fd5b505050506040513d601f19601f8201168201806040525081019061139691906127fc565b9050600083826113a69190612aa8565b90506113b28682611c4c565b3373ffffffffffffffffffffffffffffffffffffffff167f8fccdf2db32ffa016dea6aafce4fb9d78722cc209fd57c47193d8c2bb2a719468b8d89856040516113fe9493929190612bf1565b60405180910390a280985050505050505050506001808190555092915050565b60008034111561150c57346000803373ffffffffffffffffffffffffffffffffffffffff1673ffffffffffffffffffffffffffffffffffffffff1681526020019081526020016000206000828254611476919061231a565b925050819055503373ffffffffffffffffffffffffffffffffffffffff167f20d6bac8359f33d79581bfd2b0457cb189fda6d90fed287ddc9f2ba3eb124b67346000803373ffffffffffffffffffffffffffffffffffffffff1673ffffffffffffffffffffffffffffffffffffffff1681526020019081526020016000205460405161150392919061237f565b60405180910390a25b6000803373ffffffffffffffffffffffffffffffffffffffff1673ffffffffffffffffffffffffffffffffffffffff16815260200190815260200160002054905090565b600060026001541415611598576040517f08c379a000000000000000000000000000000000000000000000000000000000815260040161158f90612da0565b60405180910390fd5b60026001819055506115bf8373ffffffffffffffffffffffffffffffffffffffff16611c39565b80156115f85750600073ffffffffffffffffffffffffffffffffffffffff168373ffffffffffffffffffffffffffffffffffffffff1614155b611637576040517f08c379a000000000000000000000000000000000000000000000000000000000815260040161162e9061278f565b60405180910390fd5b6000600260003373ffffffffffffffffffffffffffffffffffffffff1673ffffffffffffffffffffffffffffffffffffffff16815260200190815260200160002060030160008573ffffffffffffffffffffffffffffffffffffffff1673ffffffffffffffffffffffffffffffffffffffff168152602001908152602001600020549050808311156116fe576040517f08c379a00000000000000000000000000000000000000000000000000000000081526004016116f590612f26565b60405180910390fd5b82600260003373ffffffffffffffffffffffffffffffffffffffff1673ffffffffffffffffffffffffffffffffffffffff16815260200190815260200160002060030160008673ffffffffffffffffffffffffffffffffffffffff1673ffffffffffffffffffffffffffffffffffffffff168152602001908152602001600020600082825461178d9190612aa8565b9250508190555060008490506117c433858373ffffffffffffffffffffffffffffffffffffffff16611e209092919063ffffffff16565b3373ffffffffffffffffffffffffffffffffffffffff167f0cb81543c1ecccafd4bc229f691bfa2852411a73b026e7d7d58f1beec8dc4fe08587600260003373ffffffffffffffffffffffffffffffffffffffff1673ffffffffffffffffffffffffffffffffffffffff16815260200190815260200160002060030160008a73ffffffffffffffffffffffffffffffffffffffff1673ffffffffffffffffffffffffffffffffffffffff1681526020019081526020016000205460405161188d939291906128bb565b60405180910390a2600260003373ffffffffffffffffffffffffffffffffffffffff1673ffffffffffffffffffffffffffffffffffffffff16815260200190815260200160002060030160008673ffffffffffffffffffffffffffffffffffffffff1673ffffffffffffffffffffffffffffffffffffffff16815260200190815260200160002054925050506001808190555092915050565b6060806000600260003373ffffffffffffffffffffffffffffffffffffffff1673ffffffffffffffffffffffffffffffffffffffff1681526020019081526020016000206000018054806020026020016040519081016040528092919081815260200182805480156119ed57602002820191906000526020600020905b8160009054906101000a900473ffffffffffffffffffffffffffffffffffffffff1673ffffffffffffffffffffffffffffffffffffffff16815260200190600101908083116119a3575b505050505090506000815167ffffffffffffffff811115611a1157611a10612f46565b5b604051908082528060200260200182016040528015611a3f5781602001602082028036833780820191505090505b50905060005b8251811015611b20576000838281518110611a6357611a62612f75565b5b60200260200101519050600260003373ffffffffffffffffffffffffffffffffffffffff1673ffffffffffffffffffffffffffffffffffffffff16815260200190815260200160002060030160008273ffffffffffffffffffffffffffffffffffffffff1673ffffffffffffffffffffffffffffffffffffffff16815260200190815260200160002054838381518110611b0057611aff612f75565b5b602002602001018181525050508080611b1890612fa4565b915050611a45565b50600260003373ffffffffffffffffffffffffffffffffffffffff1673ffffffffffffffffffffffffffffffffffffffff168152602001908152602001600020600001805480602002602001604051908101604052809291908181526020018280548015611be357602002820191906000526020600020905b8160009054906101000a900473ffffffffffffffffffffffffffffffffffffffff1673ffffffffffffffffffffffffffffffffffffffff1681526020019060010190808311611b99575b5050505050935080925050509091565b60008060003373ffffffffffffffffffffffffffffffffffffffff1673ffffffffffffffffffffffffffffffffffffffff16815260200190815260200160002054905090565b600080823b905060008111915050919050565b611c5582611ea6565b611cfd57600260003373ffffffffffffffffffffffffffffffffffffffff1673ffffffffffffffffffffffffffffffffffffffff168152602001908152602001600020600001829080600181540180825580915050600190039060005260206000200160009091909190916101000a81548173ffffffffffffffffffffffffffffffffffffffff021916908373ffffffffffffffffffffffffffffffffffffffff1602179055505b80600260003373ffffffffffffffffffffffffffffffffffffffff1673ffffffffffffffffffffffffffffffffffffffff16815260200190815260200160002060030160008473ffffffffffffffffffffffffffffffffffffffff1673ffffffffffffffffffffffffffffffffffffffff1681526020019081526020016000206000828254611d8c919061231a565b925050819055505050565b611e1a846323b872dd60e01b858585604051602401611db893929190612fed565b604051602081830303815290604052907bffffffffffffffffffffffffffffffffffffffffffffffffffffffff19166020820180517bffffffffffffffffffffffffffffffffffffffffffffffffffffffff8381831617835250505050612087565b50505050565b611ea18363a9059cbb60e01b8484604051602401611e3f929190612adc565b604051602081830303815290604052907bffffffffffffffffffffffffffffffffffffffffffffffffffffffff19166020820180517bffffffffffffffffffffffffffffffffffffffffffffffffffffffff8381831617835250505050612087565b505050565b600080600260003373ffffffffffffffffffffffffffffffffffffffff1673ffffffffffffffffffffffffffffffffffffffff16815260200190815260200160002060030160008473ffffffffffffffffffffffffffffffffffffffff1673ffffffffffffffffffffffffffffffffffffffff168152602001908152602001600020541115611f385760019050612082565b6000600260003373ffffffffffffffffffffffffffffffffffffffff1673ffffffffffffffffffffffffffffffffffffffff168152602001908152602001600020600001805480602002602001604051908101604052809291908181526020018280548015611ffc57602002820191906000526020600020905b8160009054906101000a900473ffffffffffffffffffffffffffffffffffffffff1673ffffffffffffffffffffffffffffffffffffffff1681526020019060010190808311611fb2575b5050505050905060005b815181101561207b578373ffffffffffffffffffffffffffffffffffffffff1682828151811061203957612038612f75565b5b602002602001015173ffffffffffffffffffffffffffffffffffffffff16141561206857600192505050612082565b808061207390612fa4565b915050612006565b5060009150505b919050565b60006120e9826040518060400160405280602081526020017f5361666545524332303a206c6f772d6c6576656c2063616c6c206661696c65648152508573ffffffffffffffffffffffffffffffffffffffff1661214e9092919063ffffffff16565b905060008151111561214957808060200190518101906121099190612b3d565b612148576040517f08c379a000000000000000000000000000000000000000000000000000000000815260040161213f90613096565b60405180910390fd5b5b505050565b606061215d8484600085612166565b90509392505050565b6060824710156121ab576040517f08c379a00000000000000000000000000000000000000000000000000000000081526004016121a290613128565b60405180910390fd5b6121b485611c39565b6121f3576040517f08c379a00000000000000000000000000000000000000000000000000000000081526004016121ea90613194565b60405180910390fd5b6000808673ffffffffffffffffffffffffffffffffffffffff16858760405161221c9190613223565b60006040518083038185875af1925050503d8060008114612259576040519150601f19603f3d011682016040523d82523d6000602084013e61225e565b606091505b509150915061226e82828661227a565b92505050949350505050565b6060831561228a578290506122da565b60008351111561229d5782518084602001fd5b816040517f08c379a00000000000000000000000000000000000000000000000000000000081526004016122d1919061328f565b60405180910390fd5b9392505050565b6000819050919050565b7f4e487b7100000000000000000000000000000000000000000000000000000000600052601160045260246000fd5b6000612325826122e1565b9150612330836122e1565b9250827fffffffffffffffffffffffffffffffffffffffffffffffffffffffffffffffff03821115612365576123646122eb565b5b828201905092915050565b612379816122e1565b82525050565b60006040820190506123946000830185612370565b6123a16020830184612370565b9392505050565b600080fd5b600073ffffffffffffffffffffffffffffffffffffffff82169050919050565b60006123d8826123ad565b9050919050565b6123e8816123cd565b81146123f357600080fd5b50565b600081359050612405816123df565b92915050565b612414816122e1565b811461241f57600080fd5b50565b6000813590506124318161240b565b92915050565b6000806040838503121561244e5761244d6123a8565b5b600061245c858286016123f6565b925050602061246d85828601612422565b9150509250929050565b600060208201905061248c6000830184612370565b92915050565b6000602082840312156124a8576124a76123a8565b5b60006124b6848285016123f6565b91505092915050565b6000806000606084860312156124d8576124d76123a8565b5b60006124e6868287016123f6565b93505060206124f7868287016123f6565b925050604061250886828701612422565b9150509250925092565b600060208284031215612528576125276123a8565b5b600061253684828501612422565b91505092915050565b60008060408385031215612556576125556123a8565b5b600061256485828601612422565b9250506020612575858286016123f6565b9150509250929050565b600081519050919050565b600082825260208201905092915050565b6000819050602082019050919050565b6125b4816123cd565b82525050565b60006125c683836125ab565b60208301905092915050565b6000602082019050919050565b60006125ea8261257f565b6125f4818561258a565b93506125ff8361259b565b8060005b8381101561263057815161261788826125ba565b9750612622836125d2565b925050600181019050612603565b5085935050505092915050565b600081519050919050565b600082825260208201905092915050565b6000819050602082019050919050565b612672816122e1565b82525050565b60006126848383612669565b60208301905092915050565b6000602082019050919050565b60006126a88261263d565b6126b28185612648565b93506126bd83612659565b8060005b838110156126ee5781516126d58882612678565b97506126e083612690565b9250506001810190506126c1565b5085935050505092915050565b6000604082019050818103600083015261271581856125df565b90508181036020830152612729818461269d565b90509392505050565b600082825260208201905092915050565b7f4e6f7420612076616c696420636f6e7472616374206164647265737300000000600082015250565b6000612779601c83612732565b915061278482612743565b602082019050919050565b600060208201905081810360008301526127a88161276c565b9050919050565b6127b8816123cd565b82525050565b60006040820190506127d360008301856127af565b6127e060208301846127af565b9392505050565b6000815190506127f68161240b565b92915050565b600060208284031215612812576128116123a8565b5b6000612820848285016127e7565b91505092915050565b7f4e6f7420656e6f75676820746f6b656e20616c6c6f77616e636520746f20636f60008201527f6d706c65746520746865206465706f7369740000000000000000000000000000602082015250565b6000612885603283612732565b915061289082612829565b604082019050919050565b600060208201905081810360008301526128b481612878565b9050919050565b60006060820190506128d06000830186612370565b6128dd60208301856127af565b6128ea6040830184612370565b949350505050565b7f4e6f7420612076616c696420636f6e7472616374206164647265737320285f6560008201527f72633230436f6e74726163742900000000000000000000000000000000000000602082015250565b600061294e602d83612732565b9150612959826128f2565b604082019050919050565b6000602082019050818103600083015261297d81612941565b9050919050565b7f4e6f7420612076616c696420636f6e7472616374206164647265737320285f6360008201527f4572633230436f6e747261637429000000000000000000000000000000000000602082015250565b60006129e0602e83612732565b91506129eb82612984565b604082019050919050565b60006020820190508181036000830152612a0f816129d3565b9050919050565b7f4e6f7420656e6f75676820657263323020746f6b656e2062616c616e6365207460008201527f6f20737570706c79000000000000000000000000000000000000000000000000602082015250565b6000612a72602883612732565b9150612a7d82612a16565b604082019050919050565b60006020820190508181036000830152612aa181612a65565b9050919050565b6000612ab3826122e1565b9150612abe836122e1565b925082821015612ad157612ad06122eb565b5b828203905092915050565b6000604082019050612af160008301856127af565b612afe6020830184612370565b9392505050565b60008115159050919050565b612b1a81612b05565b8114612b2557600080fd5b50565b600081519050612b3781612b11565b92915050565b600060208284031215612b5357612b526123a8565b5b6000612b6184828501612b28565b91505092915050565b6000602082019050612b7f60008301846127af565b92915050565b7f4d696e74696e67206661696c6564000000000000000000000000000000000000600082015250565b6000612bbb600e83612732565b9150612bc682612b85565b602082019050919050565b60006020820190508181036000830152612bea81612bae565b9050919050565b6000608082019050612c0660008301876127af565b612c136020830186612370565b612c2060408301856127af565b612c2d6060830184612370565b95945050505050565b7f4e6f7420656e6f7567682065746865722062616c616e63650000000000000000600082015250565b6000612c6c601883612732565b9150612c7782612c36565b602082019050919050565b60006020820190508181036000830152612c9b81612c5f565b9050919050565b600081905092915050565b50565b6000612cbd600083612ca2565b9150612cc882612cad565b600082019050919050565b6000612cde82612cb0565b9150819050919050565b7f4661696c656420746f2077697468647261772045746865720000000000000000600082015250565b6000612d1e601883612732565b9150612d2982612ce8565b602082019050919050565b60006020820190508181036000830152612d4d81612d11565b9050919050565b7f5265656e7472616e637947756172643a207265656e7472616e742063616c6c00600082015250565b6000612d8a601f83612732565b9150612d9582612d54565b602082019050919050565b60006020820190508181036000830152612db981612d7d565b9050919050565b7f4e6f7420656e6f7567682063546f6b656e2062616c616e636500000000000000600082015250565b6000612df6601983612732565b9150612e0182612dc0565b602082019050919050565b60006020820190508181036000830152612e2581612de9565b9050919050565b600081519050612e3b816123df565b92915050565b600060208284031215612e5757612e566123a8565b5b6000612e6584828501612e2c565b91505092915050565b7f43546f6b656e20526564656d7074696f6e206661696c65640000000000000000600082015250565b6000612ea4601883612732565b9150612eaf82612e6e565b602082019050919050565b60006020820190508181036000830152612ed381612e97565b9050919050565b7f4e6f7420656e6f75676820746f6b656e2062616c616e63650000000000000000600082015250565b6000612f10601883612732565b9150612f1b82612eda565b602082019050919050565b60006020820190508181036000830152612f3f81612f03565b9050919050565b7f4e487b7100000000000000000000000000000000000000000000000000000000600052604160045260246000fd5b7f4e487b7100000000000000000000000000000000000000000000000000000000600052603260045260246000fd5b6000612faf826122e1565b91507fffffffffffffffffffffffffffffffffffffffffffffffffffffffffffffffff821415612fe257612fe16122eb565b5b600182019050919050565b600060608201905061300260008301866127af565b61300f60208301856127af565b61301c6040830184612370565b949350505050565b7f5361666545524332303a204552433230206f7065726174696f6e20646964206e60008201527f6f74207375636365656400000000000000000000000000000000000000000000602082015250565b6000613080602a83612732565b915061308b82613024565b604082019050919050565b600060208201905081810360008301526130af81613073565b9050919050565b7f416464726573733a20696e73756666696369656e742062616c616e636520666f60008201527f722063616c6c0000000000000000000000000000000000000000000000000000602082015250565b6000613112602683612732565b915061311d826130b6565b604082019050919050565b6000602082019050818103600083015261314181613105565b9050919050565b7f416464726573733a2063616c6c20746f206e6f6e2d636f6e7472616374000000600082015250565b600061317e601d83612732565b915061318982613148565b602082019050919050565b600060208201905081810360008301526131ad81613171565b9050919050565b600081519050919050565b60005b838110156131dd5780820151818401526020810190506131c2565b838111156131ec576000848401525b50505050565b60006131fd826131b4565b6132078185612ca2565b93506132178185602086016131bf565b80840191505092915050565b600061322f82846131f2565b915081905092915050565b600081519050919050565b6000601f19601f8301169050919050565b60006132618261323a565b61326b8185612732565b935061327b8185602086016131bf565b61328481613245565b840191505092915050565b600060208201905081810360008301526132a98184613256565b90509291505056fea26469706673582212200c1bb56d0c5026e325d33b7cbf5aa8bd5d4afa5a9e183901244e0292a99e881e64736f6c63430008090033",
  "immutableReferences": {},
  "source": "// SPDX-License-Identifier: GPL-3.0\n\npragma solidity 0.8.9;\n\n// import \"@openzeppelin/contracts/token/ERC20/ERC20.sol\";\n// import \"openzeppelin-solidity/contracts/token/ERC20/ERC20.sol\";\n// import \"openzeppelin-solidity/contracts/token/ERC20/IERC20.sol\";\n// import \"openzeppelin-solidity/contracts/token/ERC20/utils/SafeERC20.sol\";\n// import 'openzeppelin-solidity/contracts/security/ReentrancyGuard.sol';\n// import 'openzeppelin/contracts/utils/Address.sol';\n\nimport '@openzeppelin/contracts/token/ERC20/ERC20.sol';\nimport '@openzeppelin/contracts/token/ERC20/utils/SafeERC20.sol';\nimport '@openzeppelin/contracts/utils/Address.sol';\nimport '@openzeppelin/contracts/security/ReentrancyGuard.sol';\n\n\nimport \"./CErc20.sol\";\n\nimport \"./EtherWallet.sol\";\n\n/// @title A smart contract wallet that stores ether and erc20 tokens and supplies erc20 tokens to compound.finance\n/// @author Nikolaos Petridis\n/// @notice You can use this contract for only the most basic simulation\n/// @dev All function calls are currently implemented without side effects\ncontract DefiVault is EtherWallet, ReentrancyGuard {\n  using SafeERC20 for ERC20;\n  using Address for address;\n  \n  struct TokensLedger {\n    address[] tokens;\n\n    uint tokenRegistryCount;\n    mapping(uint => address) tokenIdToAddress;\n\n    // erc20 token address => user amount\n    mapping(address => uint256) balances;\n  }\n\n  mapping(address => TokensLedger) private tokenBalances; // user address => user wallet\n\n  event DepositERC20(address indexed sender, uint256 amount, address erc20Contract, uint256 newTotalBalance);\n  event WithdrawERC20(address indexed to, uint256 amount, address erc20Contract, uint256 newTotalBalance);\n  event SupplyERC20(address indexed owner, address underlyingErc20Contract, uint256 suppliedErc20Amount, address cErc20Contract, uint256 mintedCTokenAmount);\n  event RedeemERC20(address indexed owner, address cErc20Contract, uint256 suppliedCTokenAmount, address underlyingErc20Contract, uint256 redeemedErc20Amount);\n\n  // Q: Does this need to be payable? Is there any reason to have it if I dont use it?\n  fallback() external payable override {\n    revert();\n    // if (msg.value > 0) {\n    //   etherBalances[msg.sender] += msg.value;\n    //   emit Deposit(msg.sender, msg.value, etherBalances[msg.sender]);\n    // }\n  }\n\n  /// @notice Get the ERC20 token balance of the sender\n  /// @param tokenAddress address of the ERC20 token contract\n  /// @return The requested token balance of the sender\n  function getTokenBalance(address tokenAddress)\n    public\n    view\n    returns (uint256)\n  {\n    return tokenBalances[msg.sender].balances[tokenAddress];\n  }\n\n  /// @notice Get the user ERC20 tokens and their balances\n  /// @return tokens The requested token balance of the sender\n  /// @return balances The requested token balance of the sender\n  function getTokens() public view returns (address[] memory tokens, uint256[] memory balances) {\n    address[] memory userTokens = tokenBalances[msg.sender].tokens;\n    uint256[] memory _balances = new uint256[](userTokens.length);\n    for (uint i = 0; i < userTokens.length; i++) {\n      address tokenAddress = userTokens[i];\n      _balances[i] = tokenBalances[msg.sender].balances[tokenAddress];\n    }\n\n    tokens = tokenBalances[msg.sender].tokens;\n    balances = _balances;\n  }\n\n  /// @notice Returns true when the sender has already registered the requested token address\n  /// @param tokenAddress address of the ERC20 token contract\n  /// @return True if the sender has registered the token, false otherwise\n  function hasRegisteredToken(address tokenAddress) private view returns (bool) {\n    // if user has balance > 0 the token is already registered\n    if (tokenBalances[msg.sender].balances[tokenAddress] > 0) {\n      return true;\n    }\n\n    address[] memory userTokens = tokenBalances[msg.sender].tokens;\n    // if token exists in userTokens then it is registered\n    for (uint i = 0; i < userTokens.length; i++) {\n      if (userTokens[i] == tokenAddress) {\n        return true;\n      }\n    }\n    return false;\n  }\n\n  /// @notice Updates users token ledger balance by registering it in the tokens list and adding the deposited amount\n  /// @param tokenAddress address of the ERC20 token contract\n  /// @param amount amount to be added to the token balance\n  function addTokenBalance(address tokenAddress, uint amount) private {\n    if (!hasRegisteredToken(tokenAddress)) {\n      tokenBalances[msg.sender].tokens.push(tokenAddress);\n    }\n    // Q: Is the += statement with safe math?\n    tokenBalances[msg.sender].balances[tokenAddress] += amount;\n  }\n\n  /// @notice Deposit ERC20 token to the wallet (requires sender approval first)\n  /// @param tokenAddress address of the ERC20 token contract\n  /// @param amount amount of ERC20 token to deposit\n  /// @return The ERC20 token balance of the sender\n  function depositToken(address tokenAddress, uint256 amount)\n    external\n    returns (uint256)\n  {\n    require(\n      tokenAddress.isContract() && tokenAddress != address(0),\n      'Not a valid contract address'\n    );\n    ERC20 token = ERC20(tokenAddress);\n\n    uint256 allowance = token.allowance(msg.sender, address(this));\n    require(allowance >= amount, 'Not enough token allowance to complete the deposit');\n\n    addTokenBalance(tokenAddress, amount);\n    token.safeTransferFrom(msg.sender, address(this), amount);\n\n    emit DepositERC20(msg.sender, amount, tokenAddress, tokenBalances[msg.sender].balances[tokenAddress]);\n    return tokenBalances[msg.sender].balances[tokenAddress];\n  }\n\n  /// @notice Withdraw ERC20 token to the sender's address\n  /// @param tokenAddress address of the ERC20 token contract\n  /// @param amount amount of ERC20 token to withdraw\n  /// @return The ERC20 token balance of the sender\n  function withdrawToken(\n    address tokenAddress,\n    uint256 amount\n  ) external nonReentrant returns (uint256) {\n    require(\n      tokenAddress.isContract() && tokenAddress != address(0),\n      'Not a valid contract address'\n    );\n\n    uint256 tokenBalance = tokenBalances[msg.sender].balances[tokenAddress];\n    require(amount <= tokenBalance, \"Not enough token balance\");\n\n    // Avoids reentancy SWC-107, Q: is it enough or I need a reentrancy guard modifier?\n    tokenBalances[msg.sender].balances[tokenAddress] -= amount;\n\n    ERC20 token = ERC20(tokenAddress);\n    token.safeTransfer(msg.sender, amount);\n\n    emit WithdrawERC20(msg.sender, amount, tokenAddress, tokenBalances[msg.sender].balances[tokenAddress]);\n    return tokenBalances[msg.sender].balances[tokenAddress];\n  }\n\n  function supplyErc20ToCompound(\n    address _erc20Contract,\n    address _cErc20Contract,\n    uint256 _numTokensToSupply\n  ) external returns (uint) {\n    require(\n      _erc20Contract.isContract() && _erc20Contract != address(0),\n      'Not a valid contract address (_erc20Contract)'\n    );\n    require(\n      _cErc20Contract.isContract() && _cErc20Contract != address(0),\n      'Not a valid contract address (_cErc20Contract)'\n    );\n    // Create a reference to the underlying asset contract, like DAI.\n    ERC20 underlying = ERC20(_erc20Contract);\n\n    // Create a reference to the corresponding cToken contract, like cDAI\n    CErc20 cToken = CErc20(_cErc20Contract);\n\n    uint256 underlyingTokenBalance = tokenBalances[msg.sender].balances[_erc20Contract];\n    require(underlyingTokenBalance >= _numTokensToSupply, 'Not enough erc20 token balance to supply');\n    tokenBalances[msg.sender].balances[_erc20Contract] -= _numTokensToSupply;\n\n    underlying.approve(_cErc20Contract, _numTokensToSupply);\n\n    uint256 cTokenBalanceBefore = cToken.balanceOf(address(this));\n    // Mint cTokens\n    uint mintResult = cToken.mint(_numTokensToSupply);\n    require(mintResult == 0, 'Minting failed');\n\n    uint256 cTokenBalanceAfter = cToken.balanceOf(address(this));\n    uint256 cTokenBalanceDiff = cTokenBalanceAfter - cTokenBalanceBefore;\n\n    addTokenBalance(_cErc20Contract, cTokenBalanceDiff);\n\n    emit SupplyERC20(msg.sender, _erc20Contract, _numTokensToSupply, _cErc20Contract, cTokenBalanceDiff);\n    return mintResult;\n  }\n\n  function redeemCErc20Tokens(\n    uint256 _cTokenAmount,\n    address _cErc20Contract\n  ) external nonReentrant returns (uint256) {\n    require(\n      _cErc20Contract.isContract() && _cErc20Contract != address(0),\n      'Not a valid contract address'\n    );\n    \n    // Create a reference to the corresponding cToken contract, like cDAI\n    CErc20 cToken = CErc20(_cErc20Contract);\n\n    uint256 userCTokenBalance = tokenBalances[msg.sender].balances[_cErc20Contract];\n    require(_cTokenAmount <= userCTokenBalance, 'Not enough cToken balance');\n\n    address underlyingContract = cToken.underlying();\n    ERC20 underlying = ERC20(underlyingContract);\n\n    tokenBalances[msg.sender].balances[_cErc20Contract] -= _cTokenAmount;\n\n    uint256 erc20BalanceBefore = underlying.balanceOf(address(this));\n    uint256 redeemResult = cToken.redeem(_cTokenAmount);\n    require(redeemResult == 0, 'CToken Redemption failed');\n    uint256 erc20BalanceAfter = underlying.balanceOf(address(this));\n\n    uint256 erc20BalanceDiff = erc20BalanceAfter - erc20BalanceBefore;\n\n    addTokenBalance(underlyingContract, erc20BalanceDiff);\n\n    emit RedeemERC20(msg.sender, _cErc20Contract, _cTokenAmount, underlyingContract, erc20BalanceDiff);\n    return erc20BalanceDiff;\n  }\n}\n",
  "sourcePath": "/Users/nikospetridis/projects/blockchain/blockchain-developer-bootcamp-final-project/smart-contracts/contracts/DefiVault.sol",
  "compiler": {
    "name": "solc",
    "version": "0.8.9+commit.e5eed63a.Emscripten.clang"
  },
  "schemaVersion": "3.4.3",
  "updatedAt": "2021-11-25T23:55:24.997Z",
  "networkType": "ethereum",
  "devdoc": {
    "author": "Nikolaos Petridis",
    "details": "All function calls are currently implemented without side effects",
    "kind": "dev",
    "methods": {
      "depositEther()": {
        "returns": {
          "_0": "The new ether balance of the sender"
        }
      },
      "depositToken(address,uint256)": {
        "params": {
          "amount": "amount of ERC20 token to deposit",
          "tokenAddress": "address of the ERC20 token contract"
        },
        "returns": {
          "_0": "The ERC20 token balance of the sender"
        }
      },
      "getEtherBalance()": {
        "returns": {
          "_0": "The ether balance of the sender"
        }
      },
      "getTokenBalance(address)": {
        "params": {
          "tokenAddress": "address of the ERC20 token contract"
        },
        "returns": {
          "_0": "The requested token balance of the sender"
        }
      },
      "getTokens()": {
        "returns": {
          "balances": "The requested token balance of the sender",
          "tokens": "The requested token balance of the sender"
        }
      },
      "withdrawEther(uint256)": {
        "params": {
          "amount": "ether amount you want to withdraw"
        },
        "returns": {
          "_0": "The new ether balance of the sender"
        }
      },
      "withdrawToken(address,uint256)": {
        "params": {
          "amount": "amount of ERC20 token to withdraw",
          "tokenAddress": "address of the ERC20 token contract"
        },
        "returns": {
          "_0": "The ERC20 token balance of the sender"
        }
      }
    },
    "title": "A smart contract wallet that stores ether and erc20 tokens and supplies erc20 tokens to compound.finance",
    "version": 1
  },
  "userdoc": {
    "kind": "user",
    "methods": {
      "depositEther()": {
        "notice": "Deposit ether to wallet"
      },
      "depositToken(address,uint256)": {
        "notice": "Deposit ERC20 token to the wallet (requires sender approval first)"
      },
      "getEtherBalance()": {
        "notice": "Get the ether balance of the sender"
      },
      "getTokenBalance(address)": {
        "notice": "Get the ERC20 token balance of the sender"
      },
      "getTokens()": {
        "notice": "Get the user ERC20 tokens and their balances"
      },
      "withdrawEther(uint256)": {
        "notice": "Withdraw ether from wallet to sender address"
      },
      "withdrawToken(address,uint256)": {
        "notice": "Withdraw ERC20 token to the sender's address"
      }
    },
    "notice": "You can use this contract for only the most basic simulation",
    "version": 1
  }
}