{
  "contractName": "EtherWallet",
  "abi": [
    {
      "anonymous": false,
      "inputs": [
        {
          "indexed": true,
          "internalType": "address",
          "name": "sender",
          "type": "address"
        },
        {
          "indexed": false,
          "internalType": "uint256",
          "name": "amount",
          "type": "uint256"
        },
        {
          "indexed": false,
          "internalType": "uint256",
          "name": "balance",
          "type": "uint256"
        }
      ],
      "name": "DepositEther",
      "type": "event"
    },
    {
      "anonymous": false,
      "inputs": [
        {
          "indexed": true,
          "internalType": "address",
          "name": "to",
          "type": "address"
        },
        {
          "indexed": false,
          "internalType": "uint256",
          "name": "amount",
          "type": "uint256"
        },
        {
          "indexed": false,
          "internalType": "uint256",
          "name": "balance",
          "type": "uint256"
        }
      ],
      "name": "WithdrawEther",
      "type": "event"
    },
    {
      "stateMutability": "payable",
      "type": "fallback"
    },
    {
      "stateMutability": "payable",
      "type": "receive"
    },
    {
      "inputs": [],
      "name": "getEtherBalance",
      "outputs": [
        {
          "internalType": "uint256",
          "name": "",
          "type": "uint256"
        }
      ],
      "stateMutability": "view",
      "type": "function"
    },
    {
      "inputs": [],
      "name": "depositEther",
      "outputs": [
        {
          "internalType": "uint256",
          "name": "",
          "type": "uint256"
        }
      ],
      "stateMutability": "payable",
      "type": "function"
    },
    {
      "inputs": [
        {
          "internalType": "uint256",
          "name": "amount",
          "type": "uint256"
        }
      ],
      "name": "withdrawEther",
      "outputs": [
        {
          "internalType": "uint256",
          "name": "",
          "type": "uint256"
        }
      ],
      "stateMutability": "nonpayable",
      "type": "function"
    }
  ],
  "bytecode": "0x608060405234801561001057600080fd5b50610861806100206000396000f3fe6080604052600436106100385760003560e01c80633bed33ce1461013157806398ea5fca1461016e578063ea46193e1461018c5761012c565b3661012c57600034111561012a57346000803373ffffffffffffffffffffffffffffffffffffffff1673ffffffffffffffffffffffffffffffffffffffff168152602001908152602001600020600082825461009491906105c1565b925050819055503373ffffffffffffffffffffffffffffffffffffffff167f20d6bac8359f33d79581bfd2b0457cb189fda6d90fed287ddc9f2ba3eb124b67346000803373ffffffffffffffffffffffffffffffffffffffff1673ffffffffffffffffffffffffffffffffffffffff16815260200190815260200160002054604051610121929190610626565b60405180910390a25b005b600080fd5b34801561013d57600080fd5b5061015860048036038101906101539190610680565b6101b7565b60405161016591906106ad565b60405180910390f35b610176610410565b60405161018391906106ad565b60405180910390f35b34801561019857600080fd5b506101a1610542565b6040516101ae91906106ad565b60405180910390f35b60008060003373ffffffffffffffffffffffffffffffffffffffff1673ffffffffffffffffffffffffffffffffffffffff1681526020019081526020016000205482111561023a576040517f08c379a000000000000000000000000000000000000000000000000000000000815260040161023190610725565b60405180910390fd5b816000803373ffffffffffffffffffffffffffffffffffffffff1673ffffffffffffffffffffffffffffffffffffffff16815260200190815260200160002060008282546102889190610745565b9250508190555060003373ffffffffffffffffffffffffffffffffffffffff16836040516102b5906107aa565b60006040518083038185875af1925050503d80600081146102f2576040519150601f19603f3d011682016040523d82523d6000602084013e6102f7565b606091505b505090508061033b576040517f08c379a00000000000000000000000000000000000000000000000000000000081526004016103329061080b565b60405180910390fd5b3373ffffffffffffffffffffffffffffffffffffffff167ffd68f27313402be52d2f46b6d391b7b8657000a3062853a4be930f1281072a01846000803373ffffffffffffffffffffffffffffffffffffffff1673ffffffffffffffffffffffffffffffffffffffff168152602001908152602001600020546040516103c1929190610626565b60405180910390a26000803373ffffffffffffffffffffffffffffffffffffffff1673ffffffffffffffffffffffffffffffffffffffff16815260200190815260200160002054915050919050565b6000803411156104fe57346000803373ffffffffffffffffffffffffffffffffffffffff1673ffffffffffffffffffffffffffffffffffffffff168152602001908152602001600020600082825461046891906105c1565b925050819055503373ffffffffffffffffffffffffffffffffffffffff167f20d6bac8359f33d79581bfd2b0457cb189fda6d90fed287ddc9f2ba3eb124b67346000803373ffffffffffffffffffffffffffffffffffffffff1673ffffffffffffffffffffffffffffffffffffffff168152602001908152602001600020546040516104f5929190610626565b60405180910390a25b6000803373ffffffffffffffffffffffffffffffffffffffff1673ffffffffffffffffffffffffffffffffffffffff16815260200190815260200160002054905090565b60008060003373ffffffffffffffffffffffffffffffffffffffff1673ffffffffffffffffffffffffffffffffffffffff16815260200190815260200160002054905090565b6000819050919050565b7f4e487b7100000000000000000000000000000000000000000000000000000000600052601160045260246000fd5b60006105cc82610588565b91506105d783610588565b9250827fffffffffffffffffffffffffffffffffffffffffffffffffffffffffffffffff0382111561060c5761060b610592565b5b828201905092915050565b61062081610588565b82525050565b600060408201905061063b6000830185610617565b6106486020830184610617565b9392505050565b600080fd5b61065d81610588565b811461066857600080fd5b50565b60008135905061067a81610654565b92915050565b6000602082840312156106965761069561064f565b5b60006106a48482850161066b565b91505092915050565b60006020820190506106c26000830184610617565b92915050565b600082825260208201905092915050565b7f4e6f7420656e6f7567682065746865722062616c616e63650000000000000000600082015250565b600061070f6018836106c8565b915061071a826106d9565b602082019050919050565b6000602082019050818103600083015261073e81610702565b9050919050565b600061075082610588565b915061075b83610588565b92508282101561076e5761076d610592565b5b828203905092915050565b600081905092915050565b50565b6000610794600083610779565b915061079f82610784565b600082019050919050565b60006107b582610787565b9150819050919050565b7f4661696c656420746f2077697468647261772045746865720000000000000000600082015250565b60006107f56018836106c8565b9150610800826107bf565b602082019050919050565b60006020820190508181036000830152610824816107e8565b905091905056fea2646970667358221220227b3c5b5b77e7b5dd219d6cc39f9e993e3b9b06fc11ef390474e6b6d194df1164736f6c63430008090033",
  "immutableReferences": {},
  "source": "// SPDX-License-Identifier: GPL-3.0\n\npragma solidity 0.8.9;\n\n// Q: If I add Pausable functionality where should I declare it\n// make all functions virtual and override them with relative modifier on parent contract?\n\n/// @title An ether wallet that stores ether and erc20 tokens\n/// @author Nikolaos Petridis\n/// @notice You can use this contract for only the most basic simulation\n/// @dev All function calls are currently implemented without side effects\ncontract EtherWallet {\n  mapping(address => uint256) private etherBalances; // user address => ether amount\n\n  event DepositEther(address indexed sender, uint256 amount, uint256 balance);\n  event WithdrawEther(address indexed to, uint256 amount, uint256 balance);\n\n  // not necessary\n  receive() external payable virtual {\n    if (msg.value > 0) {\n      // Q: Does this uses SafeMath by default? \n      etherBalances[msg.sender] += msg.value;\n      emit DepositEther(msg.sender, msg.value, etherBalances[msg.sender]);\n    }\n  }\n\n  // Q: Does this need to be payable? Is there any reason to have it if I dont use it?\n  fallback() external payable virtual {\n    revert();\n  }\n\n  /// @notice Get the ether balance of the sender\n  /// @return The ether balance of the sender\n  function getEtherBalance() external view returns (uint256) {\n    return etherBalances[msg.sender];\n  }\n\n  /// @notice Deposit ether to wallet\n  /// @return The new ether balance of the sender\n  function depositEther() external payable returns (uint256) {\n    if (msg.value > 0) {\n      etherBalances[msg.sender] += msg.value;\n      emit DepositEther(msg.sender, msg.value, etherBalances[msg.sender]);\n    }\n    return etherBalances[msg.sender];\n  }\n\n  /// @notice Withdraw ether from wallet to sender address\n  /// @param amount ether amount you want to withdraw\n  /// @return The new ether balance of the sender\n  function withdrawEther(uint256 amount) external returns (uint256) {\n    require(amount <= etherBalances[msg.sender], \"Not enough ether balance\");\n    etherBalances[msg.sender] -= amount;\n    (bool success, ) = msg.sender.call{value: amount}(\"\");\n    require(success, \"Failed to withdraw Ether\"); // Q: is assert a better match?\n    emit WithdrawEther(msg.sender, amount, etherBalances[msg.sender]);\n    return etherBalances[msg.sender];\n  }\n}\n",
  "sourcePath": "/Users/nikospetridis/projects/blockchain/blockchain-developer-bootcamp-final-project/smart-contracts/contracts/EtherWallet.sol",
  "compiler": {
    "name": "solc",
    "version": "0.8.9+commit.e5eed63a.Emscripten.clang"
  },
  "schemaVersion": "3.4.3",
  "updatedAt": "2021-11-22T00:31:45.944Z",
  "devdoc": {
    "author": "Nikolaos Petridis",
    "details": "All function calls are currently implemented without side effects",
    "kind": "dev",
    "methods": {
      "depositEther()": {
        "returns": {
          "_0": "The new ether balance of the sender"
        }
      },
      "getEtherBalance()": {
        "returns": {
          "_0": "The ether balance of the sender"
        }
      },
      "withdrawEther(uint256)": {
        "params": {
          "amount": "ether amount you want to withdraw"
        },
        "returns": {
          "_0": "The new ether balance of the sender"
        }
      }
    },
    "title": "An ether wallet that stores ether and erc20 tokens",
    "version": 1
  },
  "userdoc": {
    "kind": "user",
    "methods": {
      "depositEther()": {
        "notice": "Deposit ether to wallet"
      },
      "getEtherBalance()": {
        "notice": "Get the ether balance of the sender"
      },
      "withdrawEther(uint256)": {
        "notice": "Withdraw ether from wallet to sender address"
      }
    },
    "notice": "You can use this contract for only the most basic simulation",
    "version": 1
  }
}