{
  "contractName": "Wallet",
  "abi": [
    {
      "anonymous": false,
      "inputs": [
        {
          "indexed": true,
          "internalType": "address",
          "name": "sender",
          "type": "address"
        },
        {
          "indexed": false,
          "internalType": "uint256",
          "name": "amount",
          "type": "uint256"
        },
        {
          "indexed": false,
          "internalType": "address",
          "name": "erc20Contract",
          "type": "address"
        },
        {
          "indexed": false,
          "internalType": "uint256",
          "name": "newTotalBalance",
          "type": "uint256"
        }
      ],
      "name": "DepositERC20",
      "type": "event"
    },
    {
      "anonymous": false,
      "inputs": [
        {
          "indexed": true,
          "internalType": "address",
          "name": "sender",
          "type": "address"
        },
        {
          "indexed": false,
          "internalType": "uint256",
          "name": "amount",
          "type": "uint256"
        },
        {
          "indexed": false,
          "internalType": "uint256",
          "name": "newTotalBalance",
          "type": "uint256"
        }
      ],
      "name": "DepositEther",
      "type": "event"
    },
    {
      "anonymous": false,
      "inputs": [
        {
          "indexed": true,
          "internalType": "address",
          "name": "to",
          "type": "address"
        },
        {
          "indexed": false,
          "internalType": "uint256",
          "name": "amount",
          "type": "uint256"
        },
        {
          "indexed": false,
          "internalType": "address",
          "name": "erc20Contract",
          "type": "address"
        },
        {
          "indexed": false,
          "internalType": "uint256",
          "name": "balance",
          "type": "uint256"
        }
      ],
      "name": "WithdrawERC20",
      "type": "event"
    },
    {
      "anonymous": false,
      "inputs": [
        {
          "indexed": true,
          "internalType": "address",
          "name": "to",
          "type": "address"
        },
        {
          "indexed": false,
          "internalType": "uint256",
          "name": "amount",
          "type": "uint256"
        },
        {
          "indexed": false,
          "internalType": "uint256",
          "name": "balance",
          "type": "uint256"
        }
      ],
      "name": "WithdrawEther",
      "type": "event"
    },
    {
      "stateMutability": "payable",
      "type": "fallback"
    },
    {
      "stateMutability": "payable",
      "type": "receive"
    },
    {
      "inputs": [],
      "name": "getEtherBalance",
      "outputs": [
        {
          "internalType": "uint256",
          "name": "",
          "type": "uint256"
        }
      ],
      "stateMutability": "view",
      "type": "function"
    },
    {
      "inputs": [],
      "name": "depositEther",
      "outputs": [
        {
          "internalType": "uint256",
          "name": "",
          "type": "uint256"
        }
      ],
      "stateMutability": "payable",
      "type": "function"
    },
    {
      "inputs": [
        {
          "internalType": "uint256",
          "name": "amount",
          "type": "uint256"
        }
      ],
      "name": "withdrawEther",
      "outputs": [
        {
          "internalType": "uint256",
          "name": "",
          "type": "uint256"
        }
      ],
      "stateMutability": "nonpayable",
      "type": "function"
    },
    {
      "inputs": [
        {
          "internalType": "address",
          "name": "tokenAddress",
          "type": "address"
        }
      ],
      "name": "getTokenBalance",
      "outputs": [
        {
          "internalType": "uint256",
          "name": "",
          "type": "uint256"
        }
      ],
      "stateMutability": "view",
      "type": "function"
    },
    {
      "inputs": [],
      "name": "getTokens",
      "outputs": [
        {
          "internalType": "address[]",
          "name": "tokens",
          "type": "address[]"
        },
        {
          "internalType": "uint256[]",
          "name": "balances",
          "type": "uint256[]"
        }
      ],
      "stateMutability": "view",
      "type": "function"
    },
    {
      "inputs": [
        {
          "internalType": "address",
          "name": "tokenAddress",
          "type": "address"
        },
        {
          "internalType": "uint256",
          "name": "amount",
          "type": "uint256"
        }
      ],
      "name": "depositToken",
      "outputs": [
        {
          "internalType": "uint256",
          "name": "",
          "type": "uint256"
        }
      ],
      "stateMutability": "nonpayable",
      "type": "function"
    },
    {
      "inputs": [
        {
          "internalType": "address",
          "name": "tokenAddress",
          "type": "address"
        },
        {
          "internalType": "uint256",
          "name": "amount",
          "type": "uint256"
        }
      ],
      "name": "withdrawToken",
      "outputs": [
        {
          "internalType": "uint256",
          "name": "",
          "type": "uint256"
        }
      ],
      "stateMutability": "nonpayable",
      "type": "function"
    }
  ],
  "bytecode": "0x608060405234801561001057600080fd5b50612025806100206000396000f3fe6080604052600436106100745760003560e01c806398ea5fca1161004e57806398ea5fca146102245780639e281a9814610242578063aa6ca8081461027f578063ea46193e146102ab57610168565b8063338b5dea1461016d5780633aecd0e3146101aa5780633bed33ce146101e757610168565b3661016857600034111561016657346000803373ffffffffffffffffffffffffffffffffffffffff1673ffffffffffffffffffffffffffffffffffffffff16815260200190815260200160002060008282546100d0919061155f565b925050819055503373ffffffffffffffffffffffffffffffffffffffff167f20d6bac8359f33d79581bfd2b0457cb189fda6d90fed287ddc9f2ba3eb124b67346000803373ffffffffffffffffffffffffffffffffffffffff1673ffffffffffffffffffffffffffffffffffffffff1681526020019081526020016000205460405161015d9291906115c4565b60405180910390a25b005b600080fd5b34801561017957600080fd5b50610194600480360381019061018f919061167c565b6102d6565b6040516101a191906116bc565b60405180910390f35b3480156101b657600080fd5b506101d160048036038101906101cc91906116d7565b610540565b6040516101de91906116bc565b60405180910390f35b3480156101f357600080fd5b5061020e60048036038101906102099190611704565b6105c9565b60405161021b91906116bc565b60405180910390f35b61022c610822565b60405161023991906116bc565b60405180910390f35b34801561024e57600080fd5b506102696004803603810190610264919061167c565b610954565b60405161027691906116bc565b60405180910390f35b34801561028b57600080fd5b50610294610c3d565b6040516102a29291906118ad565b60405180910390f35b3480156102b757600080fd5b506102c0610e38565b6040516102cd91906116bc565b60405180910390f35b60008083905060008173ffffffffffffffffffffffffffffffffffffffff1663dd62ed3e33306040518363ffffffff1660e01b81526004016103199291906118f3565b60206040518083038186803b15801561033157600080fd5b505afa158015610345573d6000803e3d6000fd5b505050506040513d601f19601f820116820180604052508101906103699190611931565b9050838110156103ae576040517f08c379a00000000000000000000000000000000000000000000000000000000081526004016103a5906119e1565b60405180910390fd5b6103b88585610e7e565b6103e53330868573ffffffffffffffffffffffffffffffffffffffff16610fc9909392919063ffffffff16565b3373ffffffffffffffffffffffffffffffffffffffff167feee1a9363c8cef3e5872690139669b46cb0b21d9c57d568d17b7b306d96694f78587600160003373ffffffffffffffffffffffffffffffffffffffff1673ffffffffffffffffffffffffffffffffffffffff16815260200190815260200160002060010160008a73ffffffffffffffffffffffffffffffffffffffff1673ffffffffffffffffffffffffffffffffffffffff168152602001908152602001600020546040516104ae93929190611a01565b60405180910390a2600160003373ffffffffffffffffffffffffffffffffffffffff1673ffffffffffffffffffffffffffffffffffffffff16815260200190815260200160002060010160008673ffffffffffffffffffffffffffffffffffffffff1673ffffffffffffffffffffffffffffffffffffffff168152602001908152602001600020549250505092915050565b6000600160003373ffffffffffffffffffffffffffffffffffffffff1673ffffffffffffffffffffffffffffffffffffffff16815260200190815260200160002060010160008373ffffffffffffffffffffffffffffffffffffffff1673ffffffffffffffffffffffffffffffffffffffff168152602001908152602001600020549050919050565b60008060003373ffffffffffffffffffffffffffffffffffffffff1673ffffffffffffffffffffffffffffffffffffffff1681526020019081526020016000205482111561064c576040517f08c379a000000000000000000000000000000000000000000000000000000000815260040161064390611a84565b60405180910390fd5b816000803373ffffffffffffffffffffffffffffffffffffffff1673ffffffffffffffffffffffffffffffffffffffff168152602001908152602001600020600082825461069a9190611aa4565b9250508190555060003373ffffffffffffffffffffffffffffffffffffffff16836040516106c790611b09565b60006040518083038185875af1925050503d8060008114610704576040519150601f19603f3d011682016040523d82523d6000602084013e610709565b606091505b505090508061074d576040517f08c379a000000000000000000000000000000000000000000000000000000000815260040161074490611b6a565b60405180910390fd5b3373ffffffffffffffffffffffffffffffffffffffff167ffd68f27313402be52d2f46b6d391b7b8657000a3062853a4be930f1281072a01846000803373ffffffffffffffffffffffffffffffffffffffff1673ffffffffffffffffffffffffffffffffffffffff168152602001908152602001600020546040516107d39291906115c4565b60405180910390a26000803373ffffffffffffffffffffffffffffffffffffffff1673ffffffffffffffffffffffffffffffffffffffff16815260200190815260200160002054915050919050565b60008034111561091057346000803373ffffffffffffffffffffffffffffffffffffffff1673ffffffffffffffffffffffffffffffffffffffff168152602001908152602001600020600082825461087a919061155f565b925050819055503373ffffffffffffffffffffffffffffffffffffffff167f20d6bac8359f33d79581bfd2b0457cb189fda6d90fed287ddc9f2ba3eb124b67346000803373ffffffffffffffffffffffffffffffffffffffff1673ffffffffffffffffffffffffffffffffffffffff168152602001908152602001600020546040516109079291906115c4565b60405180910390a25b6000803373ffffffffffffffffffffffffffffffffffffffff1673ffffffffffffffffffffffffffffffffffffffff16815260200190815260200160002054905090565b600080600160003373ffffffffffffffffffffffffffffffffffffffff1673ffffffffffffffffffffffffffffffffffffffff16815260200190815260200160002060010160008573ffffffffffffffffffffffffffffffffffffffff1673ffffffffffffffffffffffffffffffffffffffff16815260200190815260200160002054905080831115610a1c576040517f08c379a0000000000000000000000000000000000000000000000000000000008152600401610a1390611bd6565b60405180910390fd5b82600160003373ffffffffffffffffffffffffffffffffffffffff1673ffffffffffffffffffffffffffffffffffffffff16815260200190815260200160002060010160008673ffffffffffffffffffffffffffffffffffffffff1673ffffffffffffffffffffffffffffffffffffffff1681526020019081526020016000206000828254610aab9190611aa4565b925050819055506000849050610ae233858373ffffffffffffffffffffffffffffffffffffffff166110529092919063ffffffff16565b3373ffffffffffffffffffffffffffffffffffffffff167f0cb81543c1ecccafd4bc229f691bfa2852411a73b026e7d7d58f1beec8dc4fe08587600160003373ffffffffffffffffffffffffffffffffffffffff1673ffffffffffffffffffffffffffffffffffffffff16815260200190815260200160002060010160008a73ffffffffffffffffffffffffffffffffffffffff1673ffffffffffffffffffffffffffffffffffffffff16815260200190815260200160002054604051610bab93929190611a01565b60405180910390a2600160003373ffffffffffffffffffffffffffffffffffffffff1673ffffffffffffffffffffffffffffffffffffffff16815260200190815260200160002060010160008673ffffffffffffffffffffffffffffffffffffffff1673ffffffffffffffffffffffffffffffffffffffff168152602001908152602001600020549250505092915050565b6060806000825167ffffffffffffffff811115610c5d57610c5c611bf6565b5b604051908082528060200260200182016040528015610c8b5781602001602082028036833780820191505090505b50905060005b8351811015610d6657600160003373ffffffffffffffffffffffffffffffffffffffff1673ffffffffffffffffffffffffffffffffffffffff1681526020019081526020016000206001016000858381518110610cf157610cf0611c25565b5b602002602001015173ffffffffffffffffffffffffffffffffffffffff1673ffffffffffffffffffffffffffffffffffffffff16815260200190815260200160002054828281518110610d4757610d46611c25565b5b6020026020010181815250508080610d5e90611c54565b915050610c91565b50600160003373ffffffffffffffffffffffffffffffffffffffff1673ffffffffffffffffffffffffffffffffffffffff168152602001908152602001600020600001805480602002602001604051908101604052809291908181526020018280548015610e2957602002820191906000526020600020905b8160009054906101000a900473ffffffffffffffffffffffffffffffffffffffff1673ffffffffffffffffffffffffffffffffffffffff1681526020019060010190808311610ddf575b50505050509250809150509091565b60008060003373ffffffffffffffffffffffffffffffffffffffff1673ffffffffffffffffffffffffffffffffffffffff16815260200190815260200160002054905090565b610e87826110d8565b610f2f57600160003373ffffffffffffffffffffffffffffffffffffffff1673ffffffffffffffffffffffffffffffffffffffff168152602001908152602001600020600001829080600181540180825580915050600190039060005260206000200160009091909190916101000a81548173ffffffffffffffffffffffffffffffffffffffff021916908373ffffffffffffffffffffffffffffffffffffffff1602179055505b80600160003373ffffffffffffffffffffffffffffffffffffffff1673ffffffffffffffffffffffffffffffffffffffff16815260200190815260200160002060010160008473ffffffffffffffffffffffffffffffffffffffff1673ffffffffffffffffffffffffffffffffffffffff1681526020019081526020016000206000828254610fbe919061155f565b925050819055505050565b61104c846323b872dd60e01b858585604051602401610fea93929190611c9d565b604051602081830303815290604052907bffffffffffffffffffffffffffffffffffffffffffffffffffffffff19166020820180517bffffffffffffffffffffffffffffffffffffffffffffffffffffffff83818316178352505050506112b9565b50505050565b6110d38363a9059cbb60e01b8484604051602401611071929190611cd4565b604051602081830303815290604052907bffffffffffffffffffffffffffffffffffffffffffffffffffffffff19166020820180517bffffffffffffffffffffffffffffffffffffffffffffffffffffffff83818316178352505050506112b9565b505050565b600080600160003373ffffffffffffffffffffffffffffffffffffffff1673ffffffffffffffffffffffffffffffffffffffff16815260200190815260200160002060010160008473ffffffffffffffffffffffffffffffffffffffff1673ffffffffffffffffffffffffffffffffffffffff16815260200190815260200160002054111561116a57600190506112b4565b6000600160003373ffffffffffffffffffffffffffffffffffffffff1673ffffffffffffffffffffffffffffffffffffffff16815260200190815260200160002060000180548060200260200160405190810160405280929190818152602001828054801561122e57602002820191906000526020600020905b8160009054906101000a900473ffffffffffffffffffffffffffffffffffffffff1673ffffffffffffffffffffffffffffffffffffffff16815260200190600101908083116111e4575b5050505050905060005b81518110156112ad578373ffffffffffffffffffffffffffffffffffffffff1682828151811061126b5761126a611c25565b5b602002602001015173ffffffffffffffffffffffffffffffffffffffff16141561129a576001925050506112b4565b80806112a590611c54565b915050611238565b5060009150505b919050565b600061131b826040518060400160405280602081526020017f5361666545524332303a206c6f772d6c6576656c2063616c6c206661696c65648152508573ffffffffffffffffffffffffffffffffffffffff166113809092919063ffffffff16565b905060008151111561137b578080602001905181019061133b9190611d35565b61137a576040517f08c379a000000000000000000000000000000000000000000000000000000000815260040161137190611dd4565b60405180910390fd5b5b505050565b606061138f8484600085611398565b90509392505050565b6060824710156113dd576040517f08c379a00000000000000000000000000000000000000000000000000000000081526004016113d490611e66565b60405180910390fd5b6113e6856114ac565b611425576040517f08c379a000000000000000000000000000000000000000000000000000000000815260040161141c90611ed2565b60405180910390fd5b6000808673ffffffffffffffffffffffffffffffffffffffff16858760405161144e9190611f61565b60006040518083038185875af1925050503d806000811461148b576040519150601f19603f3d011682016040523d82523d6000602084013e611490565b606091505b50915091506114a08282866114bf565b92505050949350505050565b600080823b905060008111915050919050565b606083156114cf5782905061151f565b6000835111156114e25782518084602001fd5b816040517f08c379a00000000000000000000000000000000000000000000000000000000081526004016115169190611fcd565b60405180910390fd5b9392505050565b6000819050919050565b7f4e487b7100000000000000000000000000000000000000000000000000000000600052601160045260246000fd5b600061156a82611526565b915061157583611526565b9250827fffffffffffffffffffffffffffffffffffffffffffffffffffffffffffffffff038211156115aa576115a9611530565b5b828201905092915050565b6115be81611526565b82525050565b60006040820190506115d960008301856115b5565b6115e660208301846115b5565b9392505050565b600080fd5b600073ffffffffffffffffffffffffffffffffffffffff82169050919050565b600061161d826115f2565b9050919050565b61162d81611612565b811461163857600080fd5b50565b60008135905061164a81611624565b92915050565b61165981611526565b811461166457600080fd5b50565b60008135905061167681611650565b92915050565b60008060408385031215611693576116926115ed565b5b60006116a18582860161163b565b92505060206116b285828601611667565b9150509250929050565b60006020820190506116d160008301846115b5565b92915050565b6000602082840312156116ed576116ec6115ed565b5b60006116fb8482850161163b565b91505092915050565b60006020828403121561171a576117196115ed565b5b600061172884828501611667565b91505092915050565b600081519050919050565b600082825260208201905092915050565b6000819050602082019050919050565b61176681611612565b82525050565b6000611778838361175d565b60208301905092915050565b6000602082019050919050565b600061179c82611731565b6117a6818561173c565b93506117b18361174d565b8060005b838110156117e25781516117c9888261176c565b97506117d483611784565b9250506001810190506117b5565b5085935050505092915050565b600081519050919050565b600082825260208201905092915050565b6000819050602082019050919050565b61182481611526565b82525050565b6000611836838361181b565b60208301905092915050565b6000602082019050919050565b600061185a826117ef565b61186481856117fa565b935061186f8361180b565b8060005b838110156118a0578151611887888261182a565b975061189283611842565b925050600181019050611873565b5085935050505092915050565b600060408201905081810360008301526118c78185611791565b905081810360208301526118db818461184f565b90509392505050565b6118ed81611612565b82525050565b600060408201905061190860008301856118e4565b61191560208301846118e4565b9392505050565b60008151905061192b81611650565b92915050565b600060208284031215611947576119466115ed565b5b60006119558482850161191c565b91505092915050565b600082825260208201905092915050565b7f4e6f7420656e6f75676820746f6b656e20616c6c6f77616e636520746f20636f60008201527f6d706c65746520746865206465706f7369740000000000000000000000000000602082015250565b60006119cb60328361195e565b91506119d68261196f565b604082019050919050565b600060208201905081810360008301526119fa816119be565b9050919050565b6000606082019050611a1660008301866115b5565b611a2360208301856118e4565b611a3060408301846115b5565b949350505050565b7f4e6f7420656e6f7567682065746865722062616c616e63650000000000000000600082015250565b6000611a6e60188361195e565b9150611a7982611a38565b602082019050919050565b60006020820190508181036000830152611a9d81611a61565b9050919050565b6000611aaf82611526565b9150611aba83611526565b925082821015611acd57611acc611530565b5b828203905092915050565b600081905092915050565b50565b6000611af3600083611ad8565b9150611afe82611ae3565b600082019050919050565b6000611b1482611ae6565b9150819050919050565b7f4661696c656420746f2077697468647261772045746865720000000000000000600082015250565b6000611b5460188361195e565b9150611b5f82611b1e565b602082019050919050565b60006020820190508181036000830152611b8381611b47565b9050919050565b7f4e6f7420656e6f75676820746f6b656e2062616c616e63650000000000000000600082015250565b6000611bc060188361195e565b9150611bcb82611b8a565b602082019050919050565b60006020820190508181036000830152611bef81611bb3565b9050919050565b7f4e487b7100000000000000000000000000000000000000000000000000000000600052604160045260246000fd5b7f4e487b7100000000000000000000000000000000000000000000000000000000600052603260045260246000fd5b6000611c5f82611526565b91507fffffffffffffffffffffffffffffffffffffffffffffffffffffffffffffffff821415611c9257611c91611530565b5b600182019050919050565b6000606082019050611cb260008301866118e4565b611cbf60208301856118e4565b611ccc60408301846115b5565b949350505050565b6000604082019050611ce960008301856118e4565b611cf660208301846115b5565b9392505050565b60008115159050919050565b611d1281611cfd565b8114611d1d57600080fd5b50565b600081519050611d2f81611d09565b92915050565b600060208284031215611d4b57611d4a6115ed565b5b6000611d5984828501611d20565b91505092915050565b7f5361666545524332303a204552433230206f7065726174696f6e20646964206e60008201527f6f74207375636365656400000000000000000000000000000000000000000000602082015250565b6000611dbe602a8361195e565b9150611dc982611d62565b604082019050919050565b60006020820190508181036000830152611ded81611db1565b9050919050565b7f416464726573733a20696e73756666696369656e742062616c616e636520666f60008201527f722063616c6c0000000000000000000000000000000000000000000000000000602082015250565b6000611e5060268361195e565b9150611e5b82611df4565b604082019050919050565b60006020820190508181036000830152611e7f81611e43565b9050919050565b7f416464726573733a2063616c6c20746f206e6f6e2d636f6e7472616374000000600082015250565b6000611ebc601d8361195e565b9150611ec782611e86565b602082019050919050565b60006020820190508181036000830152611eeb81611eaf565b9050919050565b600081519050919050565b60005b83811015611f1b578082015181840152602081019050611f00565b83811115611f2a576000848401525b50505050565b6000611f3b82611ef2565b611f458185611ad8565b9350611f55818560208601611efd565b80840191505092915050565b6000611f6d8284611f30565b915081905092915050565b600081519050919050565b6000601f19601f8301169050919050565b6000611f9f82611f78565b611fa9818561195e565b9350611fb9818560208601611efd565b611fc281611f83565b840191505092915050565b60006020820190508181036000830152611fe78184611f94565b90509291505056fea26469706673582212205e982ac74857d7dbcae25c12ed7196f7468d74a6573bfa0d79fa3a919665d87064736f6c63430008090033",
  "immutableReferences": {},
  "source": "// SPDX-License-Identifier: GPL-3.0\n\npragma solidity 0.8.9;\n\n// import \"@openzeppelin/contracts/token/ERC20/ERC20.sol\";\n// import \"openzeppelin-solidity/contracts/token/ERC20/ERC20.sol\";\nimport \"openzeppelin-solidity/contracts/token/ERC20/IERC20.sol\";\n// use this instead of the others\nimport \"openzeppelin-solidity/contracts/token/ERC20/utils/SafeERC20.sol\";\n\n/// @title A smart contract wallet that stores ether and erc20 tokens\n/// @author Nikolaos Petridis\n/// @notice You can use this contract for only the most basic simulation\n/// @dev All function calls are currently implemented without side effects\ncontract Wallet {\n  using SafeERC20 for IERC20;\n\n  mapping(address => uint256) private etherBalances; // user address => ether amount\n\n  struct TokensLedger {\n    address[] tokens;\n\n    // uint tokenCounter;\n    // mapping(uint => address) tokenIdToAddress;\n\n    mapping(address => uint256) balances;\n  }\n\n  mapping(address => TokensLedger) private tokenBalances; // user address => token address => amount\n  // mapping(address => mapping(address => uint256)) private tokenBalances; // user address => token address => amount\n  // store user tokens? na dw pws to kanei sto supply chain kai sta sxetika, kapws me mapping kai counter\n\n  event DepositEther(address indexed sender, uint256 amount, uint256 newTotalBalance);\n  event WithdrawEther(address indexed to, uint256 amount, uint256 balance);\n  event DepositERC20(address indexed sender, uint256 amount, address erc20Contract, uint256 newTotalBalance);\n  event WithdrawERC20(address indexed to, uint256 amount, address erc20Contract, uint256 balance);\n\n  receive() external payable {\n    if (msg.value > 0) {\n      // Q: Does this uses SafeMath by default? \n      etherBalances[msg.sender] += msg.value;\n      emit DepositEther(msg.sender, msg.value, etherBalances[msg.sender]);\n    }\n  }\n\n  // Q: Does this need to be payable? Is there any reason to have it if I dont use it?\n  fallback() external payable {\n    revert();\n    // if (msg.value > 0) {\n    //   etherBalances[msg.sender] += msg.value;\n    //   emit Deposit(msg.sender, msg.value, etherBalances[msg.sender]);\n    // }\n  }\n\n  function getEtherBalance() external view returns (uint256) {\n    return etherBalances[msg.sender];\n  }\n\n  // -> Probably not needed\n  // function getUserEtherBalance(address user) external view returns (uint256) {\n  //     return etherBalances[user];\n  // }\n\n  // -> Probably not needed\n  // function totalEtherBalance() external view returns (uint256) {\n  //     return address(this).balance;\n  // }\n\n  /// @notice Deposit ether to wallet\n  /// @return The new ether balance of the sender\n  function depositEther() external payable returns (uint256) {\n    if (msg.value > 0) {\n      etherBalances[msg.sender] += msg.value;\n      emit DepositEther(msg.sender, msg.value, etherBalances[msg.sender]);\n    }\n    return etherBalances[msg.sender];\n  }\n\n  /// @notice Withdraw ether from wallet to sender address\n  /// @param amount ether amount you want to withdraw\n  /// @return The new ether balance of the sender\n  function withdrawEther(uint256 amount) external returns (uint256) {\n    require(amount <= etherBalances[msg.sender], \"Not enough ether balance\");\n    etherBalances[msg.sender] -= amount;\n    (bool success, ) = msg.sender.call{value: amount}(\"\");\n    require(success, \"Failed to withdraw Ether\");\n    emit WithdrawEther(msg.sender, amount, etherBalances[msg.sender]);\n    return etherBalances[msg.sender];\n  }\n\n  // -> Probably not needed\n  // function transfer(address to, uint256 withdrawAmount) external returns (uint256) {\n  //   require(withdrawAmount <= etherBalances[msg.sender], \"Not enough ether balance\");\n  //   etherBalances[msg.sender] -= withdrawAmount;\n  //   (bool success, ) = to.call{value: withdrawAmount}(\"\");\n  //   require(success, \"Failed to withdraw Ether\");\n  //   emit Transfer(msg.sender, to, withdrawAmount, etherBalances[msg.sender]);\n  //   return etherBalances[msg.sender];\n  // }\n\n  // ERC20\n\n  /// @notice Get the ERC20 token balance of the sender\n  /// @param tokenAddress address of the ERC20 token contract\n  /// @return The requested token balance of the sender\n  function getTokenBalance(address tokenAddress)\n    public\n    view\n    returns (uint256)\n  {\n    return tokenBalances[msg.sender].balances[tokenAddress];\n  }\n\n  /// @notice Get the user ERC20 tokens and their balances\n  /// @return tokens The requested token balance of the sender\n  /// @return balances The requested token balance of the sender\n  function getTokens() public view returns (address[] memory tokens, uint256[] memory balances) {\n    uint256[] memory _balances = new uint256[](tokens.length);\n    for (uint i = 0; i < tokens.length; i++) {\n      _balances[i] = tokenBalances[msg.sender].balances[tokens[i]];\n    }\n\n    tokens = tokenBalances[msg.sender].tokens;\n    balances = _balances;\n  }\n\n  // @notice Deposit ERC20 token to the wallet (requires sender approval first)\n  // @param tokenAddress address of the ERC20 token contract\n  // @param amount amount of ERC20 token to deposit\n  // @return The ERC20 token balance of the sender\n  // function depositToken(address tokenAddress, uint256 amount)\n  //   public\n  //   returns (uint256)\n  // {\n  //   ERC20 tokenContract = ERC20(tokenAddress);\n\n  //   uint256 allowance = tokenContract.allowance(msg.sender, address(this));\n  //   require(allowance >= amount, 'Not enough token allowance to complete the deposit');\n\n  //   // Q: Is the += statement with safe math?\n  //   tokenBalances[msg.sender][tokenAddress] += amount;\n  //   bool success = tokenContract.transferFrom(msg.sender, address(this), amount);\n  //   require(success, 'The token transfer was not successful');\n\n  //   emit DepositERC20(msg.sender, amount, tokenAddress, tokenBalances[msg.sender][tokenAddress]);\n  //   return tokenBalances[msg.sender][tokenAddress];\n  // }\n\n  /// @notice Returns true when the sender has already registered the requested token address\n  /// @param tokenAddress address of the ERC20 token contract\n  /// @return True if the sender has registered the token, false otherwise\n  function hasRegisteredToken(address tokenAddress) internal view returns (bool) {\n    // if user has balance > 0 the token is already registered\n    if (tokenBalances[msg.sender].balances[tokenAddress] > 0) {\n      return true;\n    }\n\n    address[] memory userTokens = tokenBalances[msg.sender].tokens;\n    // if token exists in userTokens then it is registered\n    for (uint i = 0; i < userTokens.length; i++) {\n      if (userTokens[i] == tokenAddress) {\n        return true;\n      }\n    }\n    return false;\n  }\n\n  function addTokenBalance(address tokenAddress, uint amount) internal {\n    if (!hasRegisteredToken(tokenAddress)) {\n      tokenBalances[msg.sender].tokens.push(tokenAddress);\n    }\n    tokenBalances[msg.sender].balances[tokenAddress] += amount;\n  }\n\n  function depositToken(address tokenAddress, uint256 amount)\n    public\n    returns (uint256)\n  {\n    IERC20 token = IERC20(tokenAddress);\n\n    uint256 allowance = token.allowance(msg.sender, address(this));\n    require(allowance >= amount, 'Not enough token allowance to complete the deposit');\n\n    // Q: Is the += statement with safe math?\n    addTokenBalance(tokenAddress, amount);\n    token.safeTransferFrom(msg.sender, address(this), amount);\n\n    emit DepositERC20(msg.sender, amount, tokenAddress, tokenBalances[msg.sender].balances[tokenAddress]);\n    return tokenBalances[msg.sender].balances[tokenAddress];\n  }\n\n  /// @notice Withdraw ERC20 token to the sender's address\n  /// @param tokenAddress address of the ERC20 token contract\n  /// @param amount amount of ERC20 token to withdraw\n  /// @return The ERC20 token balance of the sender\n  function withdrawToken(address tokenAddress, uint256 amount)\n    public\n    returns (uint256)\n  {\n    uint256 tokenBalance = tokenBalances[msg.sender].balances[tokenAddress];\n    require(amount <= tokenBalance, \"Not enough token balance\");\n\n    // Avoids reentancy SWC-107, Q: is it enough or I need a reentrancy guard modifier?\n    tokenBalances[msg.sender].balances[tokenAddress] -= amount;\n\n    IERC20 token = IERC20(tokenAddress);\n    token.safeTransfer(msg.sender, amount);\n    // Q: Could the user provide a malicious contract address that has no tranfer function\n    // and that by executing his own code in fallback function could exploit this contract?\n\n    emit WithdrawERC20(msg.sender, amount, tokenAddress, tokenBalances[msg.sender].balances[tokenAddress]);\n    return tokenBalances[msg.sender].balances[tokenAddress];\n  }\n}\n",
  "sourcePath": "/Users/nikospetridis/projects/blockchain/blockchain-developer-bootcamp-final-project/solidity/contracts/Wallet.sol",
  "compiler": {
    "name": "solc",
    "version": "0.8.9+commit.e5eed63a.Emscripten.clang"
  },
  "schemaVersion": "3.4.3",
  "updatedAt": "2021-11-04T00:14:45.104Z",
  "devdoc": {
    "author": "Nikolaos Petridis",
    "details": "All function calls are currently implemented without side effects",
    "kind": "dev",
    "methods": {
      "depositEther()": {
        "returns": {
          "_0": "The new ether balance of the sender"
        }
      },
      "getTokenBalance(address)": {
        "params": {
          "tokenAddress": "address of the ERC20 token contract"
        },
        "returns": {
          "_0": "The requested token balance of the sender"
        }
      },
      "getTokens()": {
        "returns": {
          "balances": "The requested token balance of the sender",
          "tokens": "The requested token balance of the sender"
        }
      },
      "withdrawEther(uint256)": {
        "params": {
          "amount": "ether amount you want to withdraw"
        },
        "returns": {
          "_0": "The new ether balance of the sender"
        }
      },
      "withdrawToken(address,uint256)": {
        "params": {
          "amount": "amount of ERC20 token to withdraw",
          "tokenAddress": "address of the ERC20 token contract"
        },
        "returns": {
          "_0": "The ERC20 token balance of the sender"
        }
      }
    },
    "title": "A smart contract wallet that stores ether and erc20 tokens",
    "version": 1
  },
  "userdoc": {
    "kind": "user",
    "methods": {
      "depositEther()": {
        "notice": "Deposit ether to wallet"
      },
      "getTokenBalance(address)": {
        "notice": "Get the ERC20 token balance of the sender"
      },
      "getTokens()": {
        "notice": "Get the user ERC20 tokens and their balances"
      },
      "withdrawEther(uint256)": {
        "notice": "Withdraw ether from wallet to sender address"
      },
      "withdrawToken(address,uint256)": {
        "notice": "Withdraw ERC20 token to the sender's address"
      }
    },
    "notice": "You can use this contract for only the most basic simulation",
    "version": 1
  }
}